{
  "_format": "hh-sol-artifact-1",
  "contractName": "LimePlace",
  "sourceName": "contracts/LimePlace.sol",
  "abi": [
    {
      "anonymous": false,
      "inputs": [
        {
          "indexed": false,
          "internalType": "bytes32",
          "name": "listingId",
          "type": "bytes32"
        },
        {
          "indexed": false,
          "internalType": "address",
          "name": "tokenContract",
          "type": "address"
        },
        {
          "indexed": false,
          "internalType": "uint256",
          "name": "tokenId",
          "type": "uint256"
        },
        {
          "indexed": false,
          "internalType": "address",
          "name": "seller",
          "type": "address"
        },
        {
          "indexed": false,
          "internalType": "uint256",
          "name": "price",
          "type": "uint256"
        }
      ],
      "name": "LogListingAdded",
      "type": "event"
    },
    {
      "anonymous": false,
      "inputs": [
        {
          "indexed": false,
          "internalType": "bytes32",
          "name": "listingId",
          "type": "bytes32"
        },
        {
          "indexed": false,
          "internalType": "bool",
          "name": "active",
          "type": "bool"
        }
      ],
      "name": "LogListingCanceled",
      "type": "event"
    },
    {
      "anonymous": false,
      "inputs": [
        {
          "indexed": false,
          "internalType": "bytes32",
          "name": "listingId",
          "type": "bytes32"
        },
        {
          "indexed": false,
          "internalType": "address",
          "name": "buyer",
          "type": "address"
        },
        {
          "indexed": false,
          "internalType": "uint256",
          "name": "price",
          "type": "uint256"
        }
      ],
      "name": "LogListingSold",
      "type": "event"
    },
    {
      "anonymous": false,
      "inputs": [
        {
          "indexed": false,
          "internalType": "bytes32",
          "name": "listingId",
          "type": "bytes32"
        },
        {
          "indexed": false,
          "internalType": "uint256",
          "name": "price",
          "type": "uint256"
        }
      ],
      "name": "LogListingUpdated",
      "type": "event"
    },
    {
      "anonymous": false,
      "inputs": [
        {
          "indexed": true,
          "internalType": "address",
          "name": "previousOwner",
          "type": "address"
        },
        {
          "indexed": true,
          "internalType": "address",
          "name": "newOwner",
          "type": "address"
        }
      ],
      "name": "OwnershipTransferred",
      "type": "event"
    },
    {
      "inputs": [],
      "name": "LISTING_FEE",
      "outputs": [
        {
          "internalType": "uint256",
          "name": "",
          "type": "uint256"
        }
      ],
      "stateMutability": "view",
      "type": "function"
    },
    {
      "inputs": [
        {
          "internalType": "bytes32",
          "name": "_listingId",
          "type": "bytes32"
        }
      ],
      "name": "buy",
      "outputs": [],
      "stateMutability": "payable",
      "type": "function"
    },
    {
      "inputs": [
        {
          "internalType": "bytes32",
          "name": "_listingId",
          "type": "bytes32"
        }
      ],
      "name": "cancelListing",
      "outputs": [],
      "stateMutability": "nonpayable",
      "type": "function"
    },
    {
      "inputs": [
        {
          "internalType": "bytes32",
          "name": "_listingId",
          "type": "bytes32"
        },
        {
          "internalType": "uint256",
          "name": "_price",
          "type": "uint256"
        }
      ],
      "name": "editListing",
      "outputs": [],
      "stateMutability": "nonpayable",
      "type": "function"
    },
    {
      "inputs": [
        {
          "internalType": "address",
          "name": "_contractAddress",
          "type": "address"
        },
        {
          "internalType": "uint256",
          "name": "_tokenId",
          "type": "uint256"
        }
      ],
      "name": "generateListingId",
      "outputs": [
        {
          "internalType": "bytes32",
          "name": "",
          "type": "bytes32"
        }
      ],
      "stateMutability": "view",
      "type": "function"
    },
    {
      "inputs": [],
      "name": "getBalance",
      "outputs": [
        {
          "internalType": "uint256",
          "name": "",
          "type": "uint256"
        }
      ],
      "stateMutability": "view",
      "type": "function"
    },
    {
      "inputs": [],
      "name": "getFees",
      "outputs": [
        {
          "internalType": "uint256",
          "name": "",
          "type": "uint256"
        }
      ],
      "stateMutability": "view",
      "type": "function"
    },
    {
      "inputs": [
        {
          "internalType": "bytes32",
          "name": "_listingId",
          "type": "bytes32"
        }
      ],
      "name": "getListing",
      "outputs": [
        {
          "components": [
            {
              "internalType": "address",
              "name": "tokenContract",
              "type": "address"
            },
            {
              "internalType": "uint256",
              "name": "tokenId",
              "type": "uint256"
            },
            {
              "internalType": "address payable",
              "name": "seller",
              "type": "address"
            },
            {
              "internalType": "uint256",
              "name": "price",
              "type": "uint256"
            },
            {
              "internalType": "bool",
              "name": "listed",
              "type": "bool"
            },
            {
              "internalType": "uint256",
              "name": "updatedAt",
              "type": "uint256"
            }
          ],
          "internalType": "struct LimePlace.Listing",
          "name": "",
          "type": "tuple"
        }
      ],
      "stateMutability": "view",
      "type": "function"
    },
    {
      "inputs": [],
      "name": "getPendingFees",
      "outputs": [
        {
          "internalType": "uint256",
          "name": "",
          "type": "uint256"
        }
      ],
      "stateMutability": "view",
      "type": "function"
    },
    {
      "inputs": [
        {
          "internalType": "address",
          "name": "_tokenContract",
          "type": "address"
        },
        {
          "internalType": "uint256",
          "name": "_tokenId",
          "type": "uint256"
        },
        {
          "internalType": "uint256",
          "name": "_price",
          "type": "uint256"
        }
      ],
      "name": "list",
      "outputs": [
        {
          "internalType": "bytes32",
          "name": "",
          "type": "bytes32"
        }
      ],
      "stateMutability": "payable",
      "type": "function"
    },
    {
      "inputs": [],
      "name": "owner",
      "outputs": [
        {
          "internalType": "address",
          "name": "",
          "type": "address"
        }
      ],
      "stateMutability": "view",
      "type": "function"
    },
    {
      "inputs": [],
      "name": "renounceOwnership",
      "outputs": [],
      "stateMutability": "nonpayable",
      "type": "function"
    },
    {
      "inputs": [
        {
          "internalType": "address",
          "name": "newOwner",
          "type": "address"
        }
      ],
      "name": "transferOwnership",
      "outputs": [],
      "stateMutability": "nonpayable",
      "type": "function"
    },
    {
      "inputs": [],
      "name": "withdrawFees",
      "outputs": [],
      "stateMutability": "nonpayable",
      "type": "function"
    }
  ],
  "bytecode": "0x6080604052655af3107a400060015534801561001a57600080fd5b5061003761002c61003c60201b60201c565b61004460201b60201c565b610108565b600033905090565b60008060009054906101000a900473ffffffffffffffffffffffffffffffffffffffff169050816000806101000a81548173ffffffffffffffffffffffffffffffffffffffff021916908373ffffffffffffffffffffffffffffffffffffffff1602179055508173ffffffffffffffffffffffffffffffffffffffff168173ffffffffffffffffffffffffffffffffffffffff167f8be0079c531659141344cd1fd0a4f28419497f9722a3daafe3b4186f6b6457e060405160405180910390a35050565b611e05806101176000396000f3fe6080604052600436106100dd5760003560e01c80639ae3c4901161007f578063c51c2d0e11610059578063c51c2d0e14610279578063db8d55f1146102a4578063dda342bb146102cf578063f2fde38b146102ff576100dd565b80639ae3c490146101f75780639c9a106114610220578063c14689a51461023c576100dd565b8063476343ee116100bb578063476343ee14610175578063715018a61461018c5780638da5cb5b146101a35780639299e552146101ce576100dd565b806312065fe0146100e2578063175c0d161461010d5780632b86ae381461014a575b600080fd5b3480156100ee57600080fd5b506100f7610328565b60405161010491906110f9565b60405180910390f35b34801561011957600080fd5b50610134600480360381019061012f919061114f565b610338565b6040516101419190611283565b60405180910390f35b34801561015657600080fd5b5061015f61044a565b60405161016c91906110f9565b60405180910390f35b34801561018157600080fd5b5061018a610450565b005b34801561019857600080fd5b506101a16104a3565b005b3480156101af57600080fd5b506101b86104b7565b6040516101c591906112ad565b60405180910390f35b3480156101da57600080fd5b506101f560048036038101906101f0919061114f565b6104e0565b005b34801561020357600080fd5b5061021e600480360381019061021991906112f4565b6106a0565b005b61023a6004803603810190610235919061114f565b6107dc565b005b34801561024857600080fd5b50610263600480360381019061025e9190611360565b610aa7565b60405161027091906113af565b60405180910390f35b34801561028557600080fd5b5061028e610adc565b60405161029b91906110f9565b60405180910390f35b3480156102b057600080fd5b506102b9610aee565b6040516102c691906110f9565b60405180910390f35b6102e960048036038101906102e491906113ca565b610b00565b6040516102f691906113af565b60405180910390f35b34801561030b57600080fd5b506103266004803603810190610321919061141d565b610eaf565b005b6000610332610f32565b47905090565b61034061107c565b600460008381526020019081526020016000206040518060c00160405290816000820160009054906101000a900473ffffffffffffffffffffffffffffffffffffffff1673ffffffffffffffffffffffffffffffffffffffff1673ffffffffffffffffffffffffffffffffffffffff168152602001600182015481526020016002820160009054906101000a900473ffffffffffffffffffffffffffffffffffffffff1673ffffffffffffffffffffffffffffffffffffffff1673ffffffffffffffffffffffffffffffffffffffff168152602001600382015481526020016004820160009054906101000a900460ff161515151581526020016005820154815250509050919050565b60015481565b610458610f32565b3373ffffffffffffffffffffffffffffffffffffffff166108fc6003549081150290604051600060405180830381858888f193505050501580156104a0573d6000803e3d6000fd5b50565b6104ab610f32565b6104b56000610fb0565b565b60008060009054906101000a900473ffffffffffffffffffffffffffffffffffffffff16905090565b60006004600083815260200190815260200160002090508060020160009054906101000a900473ffffffffffffffffffffffffffffffffffffffff1673ffffffffffffffffffffffffffffffffffffffff163373ffffffffffffffffffffffffffffffffffffffff1614610589576040517f08c379a0000000000000000000000000000000000000000000000000000000008152600401610580906114a7565b60405180910390fd5b600115158160040160009054906101000a900460ff161515146105e1576040517f08c379a00000000000000000000000000000000000000000000000000000000081526004016105d890611513565b60405180910390fd5b60008160040160006101000a81548160ff021916908315150217905550600154600260008282546106129190611562565b925050819055503373ffffffffffffffffffffffffffffffffffffffff166108fc6001549081150290604051600060405180830381858888f19350505050158015610661573d6000803e3d6000fd5b507fbd4a1dcea2f615fb2a077051306544e9087dc2a3dd6b380813503495959c41688260006040516106949291906115a5565b60405180910390a15050565b60006004600084815260200190815260200160002090508060020160009054906101000a900473ffffffffffffffffffffffffffffffffffffffff1673ffffffffffffffffffffffffffffffffffffffff163373ffffffffffffffffffffffffffffffffffffffff1614610749576040517f08c379a00000000000000000000000000000000000000000000000000000000081526004016107409061161a565b60405180910390fd5b6000821161078c576040517f08c379a000000000000000000000000000000000000000000000000000000000815260040161078390611686565b60405180910390fd5b8181600301819055504281600501819055507f3c1e00868b8eb5937f72951b04738667102a36501a2b80beb9c69b75f08126a583836040516107cf9291906116a6565b60405180910390a1505050565b806000600460008381526020019081526020016000209050600062278d0090504281836005015461080d91906116cf565b101561084e576040517f08c379a00000000000000000000000000000000000000000000000000000000081526004016108459061174f565b60405180910390fd5b6000600460008681526020019081526020016000209050600115158160040160009054906101000a900460ff161515146108bd576040517f08c379a00000000000000000000000000000000000000000000000000000000081526004016108b4906117bb565b60405180910390fd5b8060030154341015610904576040517f08c379a00000000000000000000000000000000000000000000000000000000081526004016108fb9061184d565b60405180910390fd5b600033905060008260020160009054906101000a900473ffffffffffffffffffffffffffffffffffffffff16905060008360040160006101000a81548160ff021916908315150217905550600154600260008282546109639190611562565b925050819055506001546003600082825461097e91906116cf565b925050819055508260000160009054906101000a900473ffffffffffffffffffffffffffffffffffffffff1673ffffffffffffffffffffffffffffffffffffffff166323b872dd828486600101546040518463ffffffff1660e01b81526004016109ea939291906118cc565b600060405180830381600087803b158015610a0457600080fd5b505af1158015610a18573d6000803e3d6000fd5b505050508073ffffffffffffffffffffffffffffffffffffffff166108fc349081150290604051600060405180830381858888f19350505050158015610a62573d6000803e3d6000fd5b507f9de3a81981e45da30c4b78ef9daa8d0da04288f6b20ac64ecbdc1443fd458f31878334604051610a9693929190611903565b60405180910390a150505050505050565b6000828242604051602001610abe9392919061193a565b60405160208183030381529060405280519060200120905092915050565b6000610ae6610f32565b600254905090565b6000610af8610f32565b600354905090565b6000808211610b44576040517f08c379a0000000000000000000000000000000000000000000000000000000008152600401610b3b906119bd565b60405180910390fd5b6001543414610b88576040517f08c379a0000000000000000000000000000000000000000000000000000000008152600401610b7f90611a29565b60405180910390fd5b8373ffffffffffffffffffffffffffffffffffffffff166301ffc9a76380ac58cd6040518263ffffffff1660e01b8152600401610bc59190611abd565b602060405180830381865afa158015610be2573d6000803e3d6000fd5b505050506040513d601f19601f82011682018060405250810190610c069190611b04565b610c45576040517f08c379a0000000000000000000000000000000000000000000000000000000008152600401610c3c90611ba3565b60405180910390fd5b8373ffffffffffffffffffffffffffffffffffffffff1663e985e9c533306040518363ffffffff1660e01b8152600401610c80929190611bc3565b602060405180830381865afa158015610c9d573d6000803e3d6000fd5b505050506040513d601f19601f82011682018060405250810190610cc19190611b04565b610d00576040517f08c379a0000000000000000000000000000000000000000000000000000000008152600401610cf790611c5e565b60405180910390fd5b6000610d0c8585610aa7565b90506040518060c001604052808673ffffffffffffffffffffffffffffffffffffffff1681526020018581526020013373ffffffffffffffffffffffffffffffffffffffff168152602001848152602001600115158152602001428152506004600083815260200190815260200160002060008201518160000160006101000a81548173ffffffffffffffffffffffffffffffffffffffff021916908373ffffffffffffffffffffffffffffffffffffffff1602179055506020820151816001015560408201518160020160006101000a81548173ffffffffffffffffffffffffffffffffffffffff021916908373ffffffffffffffffffffffffffffffffffffffff1602179055506060820151816003015560808201518160040160006101000a81548160ff02191690831515021790555060a082015181600501559050503460026000828254610e5e91906116cf565b925050819055507fb496ce02158f45bee776985c1cfeae7eeaf029494aef9b21782f671a833a64768186863387604051610e9c959493929190611c7e565b60405180910390a1809150509392505050565b610eb7610f32565b600073ffffffffffffffffffffffffffffffffffffffff168173ffffffffffffffffffffffffffffffffffffffff1603610f26576040517f08c379a0000000000000000000000000000000000000000000000000000000008152600401610f1d90611d43565b60405180910390fd5b610f2f81610fb0565b50565b610f3a611074565b73ffffffffffffffffffffffffffffffffffffffff16610f586104b7565b73ffffffffffffffffffffffffffffffffffffffff1614610fae576040517f08c379a0000000000000000000000000000000000000000000000000000000008152600401610fa590611daf565b60405180910390fd5b565b60008060009054906101000a900473ffffffffffffffffffffffffffffffffffffffff169050816000806101000a81548173ffffffffffffffffffffffffffffffffffffffff021916908373ffffffffffffffffffffffffffffffffffffffff1602179055508173ffffffffffffffffffffffffffffffffffffffff168173ffffffffffffffffffffffffffffffffffffffff167f8be0079c531659141344cd1fd0a4f28419497f9722a3daafe3b4186f6b6457e060405160405180910390a35050565b600033905090565b6040518060c00160405280600073ffffffffffffffffffffffffffffffffffffffff16815260200160008152602001600073ffffffffffffffffffffffffffffffffffffffff16815260200160008152602001600015158152602001600081525090565b6000819050919050565b6110f3816110e0565b82525050565b600060208201905061110e60008301846110ea565b92915050565b600080fd5b6000819050919050565b61112c81611119565b811461113757600080fd5b50565b60008135905061114981611123565b92915050565b60006020828403121561116557611164611114565b5b60006111738482850161113a565b91505092915050565b600073ffffffffffffffffffffffffffffffffffffffff82169050919050565b60006111a78261117c565b9050919050565b6111b78161119c565b82525050565b6111c6816110e0565b82525050565b60006111d78261117c565b9050919050565b6111e7816111cc565b82525050565b60008115159050919050565b611202816111ed565b82525050565b60c08201600082015161121e60008501826111ae565b50602082015161123160208501826111bd565b50604082015161124460408501826111de565b50606082015161125760608501826111bd565b50608082015161126a60808501826111f9565b5060a082015161127d60a08501826111bd565b50505050565b600060c0820190506112986000830184611208565b92915050565b6112a78161119c565b82525050565b60006020820190506112c2600083018461129e565b92915050565b6112d1816110e0565b81146112dc57600080fd5b50565b6000813590506112ee816112c8565b92915050565b6000806040838503121561130b5761130a611114565b5b60006113198582860161113a565b925050602061132a858286016112df565b9150509250929050565b61133d8161119c565b811461134857600080fd5b50565b60008135905061135a81611334565b92915050565b6000806040838503121561137757611376611114565b5b60006113858582860161134b565b9250506020611396858286016112df565b9150509250929050565b6113a981611119565b82525050565b60006020820190506113c460008301846113a0565b92915050565b6000806000606084860312156113e3576113e2611114565b5b60006113f18682870161134b565b9350506020611402868287016112df565b9250506040611413868287016112df565b9150509250925092565b60006020828403121561143357611432611114565b5b60006114418482850161134b565b91505092915050565b600082825260208201905092915050565b7f596f752063616e63656c206f6e6c7920796f7572206c697374696e6773000000600082015250565b6000611491601d8361144a565b915061149c8261145b565b602082019050919050565b600060208201905081810360008301526114c081611484565b9050919050565b7f4c697374696e6720697320616c72656164792063616e63656c65640000000000600082015250565b60006114fd601b8361144a565b9150611508826114c7565b602082019050919050565b6000602082019050818103600083015261152c816114f0565b9050919050565b7f4e487b7100000000000000000000000000000000000000000000000000000000600052601160045260246000fd5b600061156d826110e0565b9150611578836110e0565b92508282039050818111156115905761158f611533565b5b92915050565b61159f816111ed565b82525050565b60006040820190506115ba60008301856113a0565b6115c76020830184611596565b9392505050565b7f596f752063616e2065646974206f6e6c7920796f7572206c697374696e677300600082015250565b6000611604601f8361144a565b915061160f826115ce565b602082019050919050565b60006020820190508181036000830152611633816115f7565b9050919050565b7f5468652070726963652073686f756c64206265206d6f7265207468616e203000600082015250565b6000611670601f8361144a565b915061167b8261163a565b602082019050919050565b6000602082019050818103600083015261169f81611663565b9050919050565b60006040820190506116bb60008301856113a0565b6116c860208301846110ea565b9392505050565b60006116da826110e0565b91506116e5836110e0565b92508282019050808211156116fd576116fc611533565b5b92915050565b7f54686973206c697374696e672069732065787069726564000000000000000000600082015250565b600061173960178361144a565b915061174482611703565b602082019050919050565b600060208201905081810360008301526117688161172c565b9050919050565b7f54686973206c697374696e67206973206e6f7420616374697665000000000000600082015250565b60006117a5601a8361144a565b91506117b08261176f565b602082019050919050565b600060208201905081810360008301526117d481611798565b9050919050565b7f4e6f7420656e6f75676820657468657220746f20636f7665722061736b696e6760008201527f2070726963650000000000000000000000000000000000000000000000000000602082015250565b600061183760268361144a565b9150611842826117db565b604082019050919050565b600060208201905081810360008301526118668161182a565b9050919050565b6000819050919050565b600061189261188d6118888461117c565b61186d565b61117c565b9050919050565b60006118a482611877565b9050919050565b60006118b682611899565b9050919050565b6118c6816118ab565b82525050565b60006060820190506118e160008301866118bd565b6118ee60208301856118bd565b6118fb60408301846110ea565b949350505050565b600060608201905061191860008301866113a0565b61192560208301856118bd565b61193260408301846110ea565b949350505050565b600060608201905061194f600083018661129e565b61195c60208301856110ea565b61196960408301846110ea565b949350505050565b7f5072696365206d757374206265206174206c6561737420312077656900000000600082015250565b60006119a7601c8361144a565b91506119b282611971565b602082019050919050565b600060208201905081810360008301526119d68161199a565b9050919050565b7f4e6f7420656e6f75676820657468657220666f72206c697374696e6720666565600082015250565b6000611a1360208361144a565b9150611a1e826119dd565b602082019050919050565b60006020820190508181036000830152611a4281611a06565b9050919050565b6000819050919050565b60007fffffffff0000000000000000000000000000000000000000000000000000000082169050919050565b60008160e01b9050919050565b6000611aa7611aa2611a9d84611a49565b611a7f565b611a53565b9050919050565b611ab781611a8c565b82525050565b6000602082019050611ad26000830184611aae565b92915050565b611ae1816111ed565b8114611aec57600080fd5b50565b600081519050611afe81611ad8565b92915050565b600060208284031215611b1a57611b19611114565b5b6000611b2884828501611aef565b91505092915050565b7f54686973206d61726b6574706c61636520737570706f7274206f6e6c7920455260008201527f4337323120746f6b656e73000000000000000000000000000000000000000000602082015250565b6000611b8d602b8361144a565b9150611b9882611b31565b604082019050919050565b60006020820190508181036000830152611bbc81611b80565b9050919050565b6000604082019050611bd8600083018561129e565b611be5602083018461129e565b9392505050565b7f4c696d65506c6163652073686f756c6420626520617070726f76656420666f7260008201527f206f70657261746f720000000000000000000000000000000000000000000000602082015250565b6000611c4860298361144a565b9150611c5382611bec565b604082019050919050565b60006020820190508181036000830152611c7781611c3b565b9050919050565b600060a082019050611c9360008301886113a0565b611ca0602083018761129e565b611cad60408301866110ea565b611cba606083018561129e565b611cc760808301846110ea565b9695505050505050565b7f4f776e61626c653a206e6577206f776e657220697320746865207a65726f206160008201527f6464726573730000000000000000000000000000000000000000000000000000602082015250565b6000611d2d60268361144a565b9150611d3882611cd1565b604082019050919050565b60006020820190508181036000830152611d5c81611d20565b9050919050565b7f4f776e61626c653a2063616c6c6572206973206e6f7420746865206f776e6572600082015250565b6000611d9960208361144a565b9150611da482611d63565b602082019050919050565b60006020820190508181036000830152611dc881611d8c565b905091905056fea2646970667358221220b0a3eb6c497318c88bba1a44db8870f2cb00a223b1ddda8c4c0d4de8e01d08fd64736f6c63430008120033",
  "linkReferences": {},
  "deployedLinkReferences": {}
}