{
  "_format": "hh-sol-artifact-1",
  "contractName": "LimePlace",
  "sourceName": "contracts/LimePlace.sol",
  "abi": [
    {
      "anonymous": false,
      "inputs": [
        {
          "indexed": false,
          "internalType": "bytes32",
          "name": "listingId",
          "type": "bytes32"
        },
        {
          "indexed": false,
          "internalType": "address",
          "name": "tokenContract",
          "type": "address"
        },
        {
          "indexed": false,
          "internalType": "uint256",
          "name": "tokenId",
          "type": "uint256"
        },
        {
          "indexed": false,
          "internalType": "address",
          "name": "seller",
          "type": "address"
        },
        {
          "indexed": false,
          "internalType": "uint256",
          "name": "price",
          "type": "uint256"
        }
      ],
      "name": "LogListingAdded",
      "type": "event"
    },
    {
      "anonymous": false,
      "inputs": [
        {
          "indexed": false,
          "internalType": "bytes32",
          "name": "listingId",
          "type": "bytes32"
        },
        {
          "indexed": false,
          "internalType": "bool",
          "name": "active",
          "type": "bool"
        }
      ],
      "name": "LogListingCanceled",
      "type": "event"
    },
    {
      "anonymous": false,
      "inputs": [
        {
          "indexed": false,
          "internalType": "bytes32",
          "name": "listingId",
          "type": "bytes32"
        },
        {
          "indexed": false,
          "internalType": "address",
          "name": "buyer",
          "type": "address"
        },
        {
          "indexed": false,
          "internalType": "uint256",
          "name": "price",
          "type": "uint256"
        }
      ],
      "name": "LogListingSold",
      "type": "event"
    },
    {
      "anonymous": false,
      "inputs": [
        {
          "indexed": false,
          "internalType": "bytes32",
          "name": "listingId",
          "type": "bytes32"
        },
        {
          "indexed": false,
          "internalType": "uint256",
          "name": "price",
          "type": "uint256"
        }
      ],
      "name": "LogListingUpdated",
      "type": "event"
    },
    {
      "anonymous": false,
      "inputs": [
        {
          "indexed": true,
          "internalType": "address",
          "name": "previousOwner",
          "type": "address"
        },
        {
          "indexed": true,
          "internalType": "address",
          "name": "newOwner",
          "type": "address"
        }
      ],
      "name": "OwnershipTransferred",
      "type": "event"
    },
    {
      "inputs": [],
      "name": "LISTING_FEE",
      "outputs": [
        {
          "internalType": "uint256",
          "name": "",
          "type": "uint256"
        }
      ],
      "stateMutability": "view",
      "type": "function"
    },
    {
      "inputs": [
        {
          "internalType": "bytes32",
          "name": "_listingId",
          "type": "bytes32"
        }
      ],
      "name": "buy",
      "outputs": [],
      "stateMutability": "payable",
      "type": "function"
    },
    {
      "inputs": [
        {
          "internalType": "bytes32",
          "name": "_listingId",
          "type": "bytes32"
        }
      ],
      "name": "cancelListing",
      "outputs": [],
      "stateMutability": "nonpayable",
      "type": "function"
    },
    {
      "inputs": [
        {
          "internalType": "bytes32",
          "name": "_listingId",
          "type": "bytes32"
        },
        {
          "internalType": "uint256",
          "name": "_price",
          "type": "uint256"
        }
      ],
      "name": "editListing",
      "outputs": [],
      "stateMutability": "nonpayable",
      "type": "function"
    },
    {
      "inputs": [
        {
          "internalType": "address",
          "name": "_contractAddress",
          "type": "address"
        },
        {
          "internalType": "uint256",
          "name": "_tokenId",
          "type": "uint256"
        }
      ],
      "name": "generateListingId",
      "outputs": [
        {
          "internalType": "bytes32",
          "name": "",
          "type": "bytes32"
        }
      ],
      "stateMutability": "view",
      "type": "function"
    },
    {
      "inputs": [],
      "name": "getBalance",
      "outputs": [
        {
          "internalType": "uint256",
          "name": "",
          "type": "uint256"
        }
      ],
      "stateMutability": "view",
      "type": "function"
    },
    {
      "inputs": [],
      "name": "getFees",
      "outputs": [
        {
          "internalType": "uint256",
          "name": "",
          "type": "uint256"
        }
      ],
      "stateMutability": "view",
      "type": "function"
    },
    {
      "inputs": [
        {
          "internalType": "bytes32",
          "name": "_listingId",
          "type": "bytes32"
        }
      ],
      "name": "getListing",
      "outputs": [
        {
          "components": [
            {
              "internalType": "address",
              "name": "tokenContract",
              "type": "address"
            },
            {
              "internalType": "uint256",
              "name": "tokenId",
              "type": "uint256"
            },
            {
              "internalType": "address payable",
              "name": "seller",
              "type": "address"
            },
            {
              "internalType": "uint256",
              "name": "price",
              "type": "uint256"
            },
            {
              "internalType": "bool",
              "name": "listed",
              "type": "bool"
            },
            {
              "internalType": "uint256",
              "name": "updatedAt",
              "type": "uint256"
            }
          ],
          "internalType": "struct LimePlace.Listing",
          "name": "",
          "type": "tuple"
        }
      ],
      "stateMutability": "view",
      "type": "function"
    },
    {
      "inputs": [],
      "name": "getPendingFees",
      "outputs": [
        {
          "internalType": "uint256",
          "name": "",
          "type": "uint256"
        }
      ],
      "stateMutability": "view",
      "type": "function"
    },
    {
      "inputs": [
        {
          "internalType": "address",
          "name": "_tokenContract",
          "type": "address"
        },
        {
          "internalType": "uint256",
          "name": "_tokenId",
          "type": "uint256"
        },
        {
          "internalType": "uint256",
          "name": "_price",
          "type": "uint256"
        }
      ],
      "name": "list",
      "outputs": [],
      "stateMutability": "payable",
      "type": "function"
    },
    {
      "inputs": [],
      "name": "owner",
      "outputs": [
        {
          "internalType": "address",
          "name": "",
          "type": "address"
        }
      ],
      "stateMutability": "view",
      "type": "function"
    },
    {
      "inputs": [],
      "name": "renounceOwnership",
      "outputs": [],
      "stateMutability": "nonpayable",
      "type": "function"
    },
    {
      "inputs": [
        {
          "internalType": "address",
          "name": "newOwner",
          "type": "address"
        }
      ],
      "name": "transferOwnership",
      "outputs": [],
      "stateMutability": "nonpayable",
      "type": "function"
    },
    {
      "inputs": [],
      "name": "withdrawFees",
      "outputs": [],
      "stateMutability": "nonpayable",
      "type": "function"
    }
  ],
  "bytecode": "0x6080604052655af3107a400060015534801561001a57600080fd5b5061003761002c61003c60201b60201c565b61004460201b60201c565b610108565b600033905090565b60008060009054906101000a900473ffffffffffffffffffffffffffffffffffffffff169050816000806101000a81548173ffffffffffffffffffffffffffffffffffffffff021916908373ffffffffffffffffffffffffffffffffffffffff1602179055508173ffffffffffffffffffffffffffffffffffffffff168173ffffffffffffffffffffffffffffffffffffffff167f8be0079c531659141344cd1fd0a4f28419497f9722a3daafe3b4186f6b6457e060405160405180910390a35050565b611dea806101176000396000f3fe6080604052600436106100dd5760003560e01c80639ae3c4901161007f578063c51c2d0e11610059578063c51c2d0e14610279578063db8d55f1146102a4578063dda342bb146102cf578063f2fde38b146102eb576100dd565b80639ae3c490146101f75780639c9a106114610220578063c14689a51461023c576100dd565b8063476343ee116100bb578063476343ee14610175578063715018a61461018c5780638da5cb5b146101a35780639299e552146101ce576100dd565b806312065fe0146100e2578063175c0d161461010d5780632b86ae381461014a575b600080fd5b3480156100ee57600080fd5b506100f7610314565b60405161010491906110de565b60405180910390f35b34801561011957600080fd5b50610134600480360381019061012f9190611134565b610324565b6040516101419190611268565b60405180910390f35b34801561015657600080fd5b5061015f610436565b60405161016c91906110de565b60405180910390f35b34801561018157600080fd5b5061018a61043c565b005b34801561019857600080fd5b506101a161048f565b005b3480156101af57600080fd5b506101b86104a3565b6040516101c59190611292565b60405180910390f35b3480156101da57600080fd5b506101f560048036038101906101f09190611134565b6104cc565b005b34801561020357600080fd5b5061021e600480360381019061021991906112d9565b61068c565b005b61023a60048036038101906102359190611134565b6107c8565b005b34801561024857600080fd5b50610263600480360381019061025e9190611345565b610a92565b6040516102709190611394565b60405180910390f35b34801561028557600080fd5b5061028e610ac7565b60405161029b91906110de565b60405180910390f35b3480156102b057600080fd5b506102b9610ad9565b6040516102c691906110de565b60405180910390f35b6102e960048036038101906102e491906113af565b610aeb565b005b3480156102f757600080fd5b50610312600480360381019061030d9190611402565b610e94565b005b600061031e610f17565b47905090565b61032c611061565b600460008381526020019081526020016000206040518060c00160405290816000820160009054906101000a900473ffffffffffffffffffffffffffffffffffffffff1673ffffffffffffffffffffffffffffffffffffffff1673ffffffffffffffffffffffffffffffffffffffff168152602001600182015481526020016002820160009054906101000a900473ffffffffffffffffffffffffffffffffffffffff1673ffffffffffffffffffffffffffffffffffffffff1673ffffffffffffffffffffffffffffffffffffffff168152602001600382015481526020016004820160009054906101000a900460ff161515151581526020016005820154815250509050919050565b60015481565b610444610f17565b3373ffffffffffffffffffffffffffffffffffffffff166108fc6003549081150290604051600060405180830381858888f1935050505015801561048c573d6000803e3d6000fd5b50565b610497610f17565b6104a16000610f95565b565b60008060009054906101000a900473ffffffffffffffffffffffffffffffffffffffff16905090565b60006004600083815260200190815260200160002090508060020160009054906101000a900473ffffffffffffffffffffffffffffffffffffffff1673ffffffffffffffffffffffffffffffffffffffff163373ffffffffffffffffffffffffffffffffffffffff1614610575576040517f08c379a000000000000000000000000000000000000000000000000000000000815260040161056c9061148c565b60405180910390fd5b600115158160040160009054906101000a900460ff161515146105cd576040517f08c379a00000000000000000000000000000000000000000000000000000000081526004016105c4906114f8565b60405180910390fd5b60008160040160006101000a81548160ff021916908315150217905550600154600260008282546105fe9190611547565b925050819055503373ffffffffffffffffffffffffffffffffffffffff166108fc6001549081150290604051600060405180830381858888f1935050505015801561064d573d6000803e3d6000fd5b507fbd4a1dcea2f615fb2a077051306544e9087dc2a3dd6b380813503495959c416882600060405161068092919061158a565b60405180910390a15050565b60006004600084815260200190815260200160002090508060020160009054906101000a900473ffffffffffffffffffffffffffffffffffffffff1673ffffffffffffffffffffffffffffffffffffffff163373ffffffffffffffffffffffffffffffffffffffff1614610735576040517f08c379a000000000000000000000000000000000000000000000000000000000815260040161072c906115ff565b60405180910390fd5b60008211610778576040517f08c379a000000000000000000000000000000000000000000000000000000000815260040161076f9061166b565b60405180910390fd5b8181600301819055504281600501819055507f3c1e00868b8eb5937f72951b04738667102a36501a2b80beb9c69b75f08126a583836040516107bb92919061168b565b60405180910390a1505050565b806000600460008381526020019081526020016000209050600062278d009050428183600501546107f991906116b4565b101561083a576040517f08c379a000000000000000000000000000000000000000000000000000000000815260040161083190611734565b60405180910390fd5b6000600460008681526020019081526020016000209050600115158160040160009054906101000a900460ff161515146108a9576040517f08c379a00000000000000000000000000000000000000000000000000000000081526004016108a0906117a0565b60405180910390fd5b806003015434146108ef576040517f08c379a00000000000000000000000000000000000000000000000000000000081526004016108e690611832565b60405180910390fd5b600033905060008260020160009054906101000a900473ffffffffffffffffffffffffffffffffffffffff16905060008360040160006101000a81548160ff0219169083151502179055506001546002600082825461094e9190611547565b925050819055506001546003600082825461096991906116b4565b925050819055508260000160009054906101000a900473ffffffffffffffffffffffffffffffffffffffff1673ffffffffffffffffffffffffffffffffffffffff166323b872dd828486600101546040518463ffffffff1660e01b81526004016109d5939291906118b1565b600060405180830381600087803b1580156109ef57600080fd5b505af1158015610a03573d6000803e3d6000fd5b505050508073ffffffffffffffffffffffffffffffffffffffff166108fc349081150290604051600060405180830381858888f19350505050158015610a4d573d6000803e3d6000fd5b507f9de3a81981e45da30c4b78ef9daa8d0da04288f6b20ac64ecbdc1443fd458f31878334604051610a81939291906118e8565b60405180910390a150505050505050565b6000828242604051602001610aa99392919061191f565b60405160208183030381529060405280519060200120905092915050565b6000610ad1610f17565b600254905090565b6000610ae3610f17565b600354905090565b60008111610b2e576040517f08c379a0000000000000000000000000000000000000000000000000000000008152600401610b25906119a2565b60405180910390fd5b6001543414610b72576040517f08c379a0000000000000000000000000000000000000000000000000000000008152600401610b6990611a0e565b60405180910390fd5b8273ffffffffffffffffffffffffffffffffffffffff166301ffc9a76380ac58cd6040518263ffffffff1660e01b8152600401610baf9190611aa2565b602060405180830381865afa158015610bcc573d6000803e3d6000fd5b505050506040513d601f19601f82011682018060405250810190610bf09190611ae9565b610c2f576040517f08c379a0000000000000000000000000000000000000000000000000000000008152600401610c2690611b88565b60405180910390fd5b8273ffffffffffffffffffffffffffffffffffffffff1663e985e9c533306040518363ffffffff1660e01b8152600401610c6a929190611ba8565b602060405180830381865afa158015610c87573d6000803e3d6000fd5b505050506040513d601f19601f82011682018060405250810190610cab9190611ae9565b610cea576040517f08c379a0000000000000000000000000000000000000000000000000000000008152600401610ce190611c43565b60405180910390fd5b6000610cf68484610a92565b90506040518060c001604052808573ffffffffffffffffffffffffffffffffffffffff1681526020018481526020013373ffffffffffffffffffffffffffffffffffffffff168152602001838152602001600115158152602001428152506004600083815260200190815260200160002060008201518160000160006101000a81548173ffffffffffffffffffffffffffffffffffffffff021916908373ffffffffffffffffffffffffffffffffffffffff1602179055506020820151816001015560408201518160020160006101000a81548173ffffffffffffffffffffffffffffffffffffffff021916908373ffffffffffffffffffffffffffffffffffffffff1602179055506060820151816003015560808201518160040160006101000a81548160ff02191690831515021790555060a082015181600501559050503460026000828254610e4891906116b4565b925050819055507fb496ce02158f45bee776985c1cfeae7eeaf029494aef9b21782f671a833a64768185853386604051610e86959493929190611c63565b60405180910390a150505050565b610e9c610f17565b600073ffffffffffffffffffffffffffffffffffffffff168173ffffffffffffffffffffffffffffffffffffffff1603610f0b576040517f08c379a0000000000000000000000000000000000000000000000000000000008152600401610f0290611d28565b60405180910390fd5b610f1481610f95565b50565b610f1f611059565b73ffffffffffffffffffffffffffffffffffffffff16610f3d6104a3565b73ffffffffffffffffffffffffffffffffffffffff1614610f93576040517f08c379a0000000000000000000000000000000000000000000000000000000008152600401610f8a90611d94565b60405180910390fd5b565b60008060009054906101000a900473ffffffffffffffffffffffffffffffffffffffff169050816000806101000a81548173ffffffffffffffffffffffffffffffffffffffff021916908373ffffffffffffffffffffffffffffffffffffffff1602179055508173ffffffffffffffffffffffffffffffffffffffff168173ffffffffffffffffffffffffffffffffffffffff167f8be0079c531659141344cd1fd0a4f28419497f9722a3daafe3b4186f6b6457e060405160405180910390a35050565b600033905090565b6040518060c00160405280600073ffffffffffffffffffffffffffffffffffffffff16815260200160008152602001600073ffffffffffffffffffffffffffffffffffffffff16815260200160008152602001600015158152602001600081525090565b6000819050919050565b6110d8816110c5565b82525050565b60006020820190506110f360008301846110cf565b92915050565b600080fd5b6000819050919050565b611111816110fe565b811461111c57600080fd5b50565b60008135905061112e81611108565b92915050565b60006020828403121561114a576111496110f9565b5b60006111588482850161111f565b91505092915050565b600073ffffffffffffffffffffffffffffffffffffffff82169050919050565b600061118c82611161565b9050919050565b61119c81611181565b82525050565b6111ab816110c5565b82525050565b60006111bc82611161565b9050919050565b6111cc816111b1565b82525050565b60008115159050919050565b6111e7816111d2565b82525050565b60c0820160008201516112036000850182611193565b50602082015161121660208501826111a2565b50604082015161122960408501826111c3565b50606082015161123c60608501826111a2565b50608082015161124f60808501826111de565b5060a082015161126260a08501826111a2565b50505050565b600060c08201905061127d60008301846111ed565b92915050565b61128c81611181565b82525050565b60006020820190506112a76000830184611283565b92915050565b6112b6816110c5565b81146112c157600080fd5b50565b6000813590506112d3816112ad565b92915050565b600080604083850312156112f0576112ef6110f9565b5b60006112fe8582860161111f565b925050602061130f858286016112c4565b9150509250929050565b61132281611181565b811461132d57600080fd5b50565b60008135905061133f81611319565b92915050565b6000806040838503121561135c5761135b6110f9565b5b600061136a85828601611330565b925050602061137b858286016112c4565b9150509250929050565b61138e816110fe565b82525050565b60006020820190506113a96000830184611385565b92915050565b6000806000606084860312156113c8576113c76110f9565b5b60006113d686828701611330565b93505060206113e7868287016112c4565b92505060406113f8868287016112c4565b9150509250925092565b600060208284031215611418576114176110f9565b5b600061142684828501611330565b91505092915050565b600082825260208201905092915050565b7f596f752063616e63656c206f6e6c7920796f7572206c697374696e6773000000600082015250565b6000611476601d8361142f565b915061148182611440565b602082019050919050565b600060208201905081810360008301526114a581611469565b9050919050565b7f4c697374696e6720697320616c72656164792063616e63656c65640000000000600082015250565b60006114e2601b8361142f565b91506114ed826114ac565b602082019050919050565b60006020820190508181036000830152611511816114d5565b9050919050565b7f4e487b7100000000000000000000000000000000000000000000000000000000600052601160045260246000fd5b6000611552826110c5565b915061155d836110c5565b925082820390508181111561157557611574611518565b5b92915050565b611584816111d2565b82525050565b600060408201905061159f6000830185611385565b6115ac602083018461157b565b9392505050565b7f596f752063616e2065646974206f6e6c7920796f7572206c697374696e677300600082015250565b60006115e9601f8361142f565b91506115f4826115b3565b602082019050919050565b60006020820190508181036000830152611618816115dc565b9050919050565b7f5468652070726963652073686f756c64206265206d6f7265207468616e203000600082015250565b6000611655601f8361142f565b91506116608261161f565b602082019050919050565b6000602082019050818103600083015261168481611648565b9050919050565b60006040820190506116a06000830185611385565b6116ad60208301846110cf565b9392505050565b60006116bf826110c5565b91506116ca836110c5565b92508282019050808211156116e2576116e1611518565b5b92915050565b7f54686973206c697374696e672069732065787069726564000000000000000000600082015250565b600061171e60178361142f565b9150611729826116e8565b602082019050919050565b6000602082019050818103600083015261174d81611711565b9050919050565b7f54686973206c697374696e67206973206e6f7420616374697665000000000000600082015250565b600061178a601a8361142f565b915061179582611754565b602082019050919050565b600060208201905081810360008301526117b98161177d565b9050919050565b7f4e6f7420656e6f75676820657468657220746f20636f7665722061736b696e6760008201527f2070726963650000000000000000000000000000000000000000000000000000602082015250565b600061181c60268361142f565b9150611827826117c0565b604082019050919050565b6000602082019050818103600083015261184b8161180f565b9050919050565b6000819050919050565b600061187761187261186d84611161565b611852565b611161565b9050919050565b60006118898261185c565b9050919050565b600061189b8261187e565b9050919050565b6118ab81611890565b82525050565b60006060820190506118c660008301866118a2565b6118d360208301856118a2565b6118e060408301846110cf565b949350505050565b60006060820190506118fd6000830186611385565b61190a60208301856118a2565b61191760408301846110cf565b949350505050565b60006060820190506119346000830186611283565b61194160208301856110cf565b61194e60408301846110cf565b949350505050565b7f5072696365206d757374206265206174206c6561737420312077656900000000600082015250565b600061198c601c8361142f565b915061199782611956565b602082019050919050565b600060208201905081810360008301526119bb8161197f565b9050919050565b7f4e6f7420656e6f75676820657468657220666f72206c697374696e6720666565600082015250565b60006119f860208361142f565b9150611a03826119c2565b602082019050919050565b60006020820190508181036000830152611a27816119eb565b9050919050565b6000819050919050565b60007fffffffff0000000000000000000000000000000000000000000000000000000082169050919050565b60008160e01b9050919050565b6000611a8c611a87611a8284611a2e565b611a64565b611a38565b9050919050565b611a9c81611a71565b82525050565b6000602082019050611ab76000830184611a93565b92915050565b611ac6816111d2565b8114611ad157600080fd5b50565b600081519050611ae381611abd565b92915050565b600060208284031215611aff57611afe6110f9565b5b6000611b0d84828501611ad4565b91505092915050565b7f54686973206d61726b6574706c61636520737570706f7274206f6e6c7920455260008201527f4337323120746f6b656e73000000000000000000000000000000000000000000602082015250565b6000611b72602b8361142f565b9150611b7d82611b16565b604082019050919050565b60006020820190508181036000830152611ba181611b65565b9050919050565b6000604082019050611bbd6000830185611283565b611bca6020830184611283565b9392505050565b7f4c696d65506c6163652073686f756c6420626520617070726f76656420666f7260008201527f206f70657261746f720000000000000000000000000000000000000000000000602082015250565b6000611c2d60298361142f565b9150611c3882611bd1565b604082019050919050565b60006020820190508181036000830152611c5c81611c20565b9050919050565b600060a082019050611c786000830188611385565b611c856020830187611283565b611c9260408301866110cf565b611c9f6060830185611283565b611cac60808301846110cf565b9695505050505050565b7f4f776e61626c653a206e6577206f776e657220697320746865207a65726f206160008201527f6464726573730000000000000000000000000000000000000000000000000000602082015250565b6000611d1260268361142f565b9150611d1d82611cb6565b604082019050919050565b60006020820190508181036000830152611d4181611d05565b9050919050565b7f4f776e61626c653a2063616c6c6572206973206e6f7420746865206f776e6572600082015250565b6000611d7e60208361142f565b9150611d8982611d48565b602082019050919050565b60006020820190508181036000830152611dad81611d71565b905091905056fea264697066735822122082e62843004d07fdb6110d4db74f1029378d261ea4d83ae60af7e059f4f4cf9064736f6c63430008120033",
  "linkReferences": {},
  "deployedLinkReferences": {}
}