{
  "_format": "hh-sol-artifact-1",
  "contractName": "LimePlace",
  "sourceName": "contracts/LimePlace.sol",
  "abi": [
    {
      "anonymous": false,
      "inputs": [
        {
          "indexed": false,
          "internalType": "address",
          "name": "collectionAddress",
          "type": "address"
        },
        {
          "indexed": false,
          "internalType": "address",
          "name": "collectionOwner",
          "type": "address"
        },
        {
          "indexed": false,
          "internalType": "string",
          "name": "name",
          "type": "string"
        },
        {
          "indexed": false,
          "internalType": "string",
          "name": "symbol",
          "type": "string"
        }
      ],
      "name": "LogCollectionCreated",
      "type": "event"
    },
    {
      "anonymous": false,
      "inputs": [
        {
          "indexed": false,
          "internalType": "bytes32",
          "name": "listingId",
          "type": "bytes32"
        },
        {
          "indexed": false,
          "internalType": "address",
          "name": "tokenContract",
          "type": "address"
        },
        {
          "indexed": false,
          "internalType": "uint256",
          "name": "tokenId",
          "type": "uint256"
        },
        {
          "indexed": false,
          "internalType": "address",
          "name": "seller",
          "type": "address"
        },
        {
          "indexed": false,
          "internalType": "uint256",
          "name": "price",
          "type": "uint256"
        }
      ],
      "name": "LogListingAdded",
      "type": "event"
    },
    {
      "anonymous": false,
      "inputs": [
        {
          "indexed": false,
          "internalType": "bytes32",
          "name": "listingId",
          "type": "bytes32"
        },
        {
          "indexed": false,
          "internalType": "bool",
          "name": "active",
          "type": "bool"
        }
      ],
      "name": "LogListingCanceled",
      "type": "event"
    },
    {
      "anonymous": false,
      "inputs": [
        {
          "indexed": false,
          "internalType": "bytes32",
          "name": "listingId",
          "type": "bytes32"
        },
        {
          "indexed": false,
          "internalType": "address",
          "name": "buyer",
          "type": "address"
        },
        {
          "indexed": false,
          "internalType": "uint256",
          "name": "price",
          "type": "uint256"
        }
      ],
      "name": "LogListingSold",
      "type": "event"
    },
    {
      "anonymous": false,
      "inputs": [
        {
          "indexed": false,
          "internalType": "bytes32",
          "name": "listingId",
          "type": "bytes32"
        },
        {
          "indexed": false,
          "internalType": "uint256",
          "name": "price",
          "type": "uint256"
        }
      ],
      "name": "LogListingUpdated",
      "type": "event"
    },
    {
      "anonymous": false,
      "inputs": [
        {
          "indexed": true,
          "internalType": "address",
          "name": "previousOwner",
          "type": "address"
        },
        {
          "indexed": true,
          "internalType": "address",
          "name": "newOwner",
          "type": "address"
        }
      ],
      "name": "OwnershipTransferred",
      "type": "event"
    },
    {
      "inputs": [],
      "name": "LISTING_FEE",
      "outputs": [
        {
          "internalType": "uint256",
          "name": "",
          "type": "uint256"
        }
      ],
      "stateMutability": "view",
      "type": "function"
    },
    {
      "inputs": [
        {
          "internalType": "bytes32",
          "name": "_listingId",
          "type": "bytes32"
        }
      ],
      "name": "buy",
      "outputs": [],
      "stateMutability": "payable",
      "type": "function"
    },
    {
      "inputs": [
        {
          "internalType": "bytes32",
          "name": "_listingId",
          "type": "bytes32"
        }
      ],
      "name": "cancelListing",
      "outputs": [],
      "stateMutability": "nonpayable",
      "type": "function"
    },
    {
      "inputs": [
        {
          "internalType": "string",
          "name": "_name",
          "type": "string"
        },
        {
          "internalType": "string",
          "name": "_symbol",
          "type": "string"
        }
      ],
      "name": "createERC721Collection",
      "outputs": [],
      "stateMutability": "nonpayable",
      "type": "function"
    },
    {
      "inputs": [
        {
          "internalType": "bytes32",
          "name": "_listingId",
          "type": "bytes32"
        },
        {
          "internalType": "uint256",
          "name": "_price",
          "type": "uint256"
        }
      ],
      "name": "editListing",
      "outputs": [],
      "stateMutability": "nonpayable",
      "type": "function"
    },
    {
      "inputs": [
        {
          "internalType": "address",
          "name": "_contractAddress",
          "type": "address"
        },
        {
          "internalType": "uint256",
          "name": "_tokenId",
          "type": "uint256"
        }
      ],
      "name": "generateListingId",
      "outputs": [
        {
          "internalType": "bytes32",
          "name": "",
          "type": "bytes32"
        }
      ],
      "stateMutability": "view",
      "type": "function"
    },
    {
      "inputs": [],
      "name": "getBalance",
      "outputs": [
        {
          "internalType": "uint256",
          "name": "",
          "type": "uint256"
        }
      ],
      "stateMutability": "view",
      "type": "function"
    },
    {
      "inputs": [
        {
          "internalType": "address",
          "name": "_collectionAddress",
          "type": "address"
        }
      ],
      "name": "getCollection",
      "outputs": [
        {
          "internalType": "string[2]",
          "name": "",
          "type": "string[2]"
        }
      ],
      "stateMutability": "view",
      "type": "function"
    },
    {
      "inputs": [],
      "name": "getFees",
      "outputs": [
        {
          "internalType": "uint256",
          "name": "",
          "type": "uint256"
        }
      ],
      "stateMutability": "view",
      "type": "function"
    },
    {
      "inputs": [
        {
          "internalType": "bytes32",
          "name": "_listingId",
          "type": "bytes32"
        }
      ],
      "name": "getListing",
      "outputs": [
        {
          "components": [
            {
              "internalType": "address",
              "name": "tokenContract",
              "type": "address"
            },
            {
              "internalType": "uint256",
              "name": "tokenId",
              "type": "uint256"
            },
            {
              "internalType": "address payable",
              "name": "seller",
              "type": "address"
            },
            {
              "internalType": "uint256",
              "name": "price",
              "type": "uint256"
            },
            {
              "internalType": "bool",
              "name": "listed",
              "type": "bool"
            },
            {
              "internalType": "uint256",
              "name": "updatedAt",
              "type": "uint256"
            }
          ],
          "internalType": "struct LimePlace.Listing",
          "name": "",
          "type": "tuple"
        }
      ],
      "stateMutability": "view",
      "type": "function"
    },
    {
      "inputs": [],
      "name": "getPendingFees",
      "outputs": [
        {
          "internalType": "uint256",
          "name": "",
          "type": "uint256"
        }
      ],
      "stateMutability": "view",
      "type": "function"
    },
    {
      "inputs": [
        {
          "internalType": "address",
          "name": "_tokenContract",
          "type": "address"
        },
        {
          "internalType": "uint256",
          "name": "_tokenId",
          "type": "uint256"
        },
        {
          "internalType": "uint256",
          "name": "_price",
          "type": "uint256"
        }
      ],
      "name": "list",
      "outputs": [],
      "stateMutability": "payable",
      "type": "function"
    },
    {
      "inputs": [],
      "name": "owner",
      "outputs": [
        {
          "internalType": "address",
          "name": "",
          "type": "address"
        }
      ],
      "stateMutability": "view",
      "type": "function"
    },
    {
      "inputs": [],
      "name": "renounceOwnership",
      "outputs": [],
      "stateMutability": "nonpayable",
      "type": "function"
    },
    {
      "inputs": [
        {
          "internalType": "address",
          "name": "newOwner",
          "type": "address"
        }
      ],
      "name": "transferOwnership",
      "outputs": [],
      "stateMutability": "nonpayable",
      "type": "function"
    },
    {
      "inputs": [],
      "name": "withdrawFees",
      "outputs": [],
      "stateMutability": "nonpayable",
      "type": "function"
    }
  ],
  "bytecode": "0x6080604052655af3107a40006001553480156200001b57600080fd5b506200003c620000306200004260201b60201c565b6200004a60201b60201c565b6200010e565b600033905090565b60008060009054906101000a900473ffffffffffffffffffffffffffffffffffffffff169050816000806101000a81548173ffffffffffffffffffffffffffffffffffffffff021916908373ffffffffffffffffffffffffffffffffffffffff1602179055508173ffffffffffffffffffffffffffffffffffffffff168173ffffffffffffffffffffffffffffffffffffffff167f8be0079c531659141344cd1fd0a4f28419497f9722a3daafe3b4186f6b6457e060405160405180910390a35050565b615dca806200011e6000396000f3fe6080604052600436106200010a5760003560e01c80639ae3c4901162000097578063db8d55f11162000061578063db8d55f11462000335578063dda342bb1462000365578063e40de8871462000385578063f2fde38b14620003c9576200010a565b80639ae3c49014620002735780639c9a106114620002a1578063c14689a514620002c1578063c51c2d0e1462000305576200010a565b80635bb6bc3c11620000d95780635bb6bc3c14620001cd578063715018a614620001fb5780638da5cb5b14620002155780639299e5521462000245576200010a565b806312065fe0146200010f578063175c0d16146200013f5780632b86ae381462000183578063476343ee14620001b3575b600080fd5b3480156200011c57600080fd5b5062000127620003f7565b60405162000136919062001693565b60405180910390f35b3480156200014c57600080fd5b506200016b6004803603810190620001659190620016ff565b62000409565b6040516200017a919062001850565b60405180910390f35b3480156200019057600080fd5b506200019b6200051d565b604051620001aa919062001693565b60405180910390f35b348015620001c057600080fd5b50620001cb62000523565b005b348015620001da57600080fd5b50620001f96004803603810190620001f39190620019cf565b62000579565b005b3480156200020857600080fd5b5062000213620006c8565b005b3480156200022257600080fd5b506200022d620006e0565b6040516200023c919062001a65565b60405180910390f35b3480156200025257600080fd5b506200027160048036038101906200026b9190620016ff565b62000709565b005b3480156200028057600080fd5b506200029f600480360381019062000299919062001ab3565b620008d4565b005b620002bf6004803603810190620002b99190620016ff565b62000a18565b005b348015620002ce57600080fd5b50620002ed6004803603810190620002e7919062001b2b565b62000cf8565b604051620002fc919062001b83565b60405180910390f35b3480156200031257600080fd5b506200031d62000d2f565b6040516200032c919062001693565b60405180910390f35b3480156200034257600080fd5b506200034d62000d43565b6040516200035c919062001693565b60405180910390f35b6200038360048036038101906200037d919062001ba0565b62000d57565b005b3480156200039257600080fd5b50620003b16004803603810190620003ab919062001bfc565b620010cc565b604051620003c0919062001d7b565b60405180910390f35b348015620003d657600080fd5b50620003f56004803603810190620003ef919062001bfc565b620011e4565b005b6000620004036200126e565b47905090565b62000413620014fe565b600460008381526020019081526020016000206040518060c00160405290816000820160009054906101000a900473ffffffffffffffffffffffffffffffffffffffff1673ffffffffffffffffffffffffffffffffffffffff1673ffffffffffffffffffffffffffffffffffffffff168152602001600182015481526020016002820160009054906101000a900473ffffffffffffffffffffffffffffffffffffffff1673ffffffffffffffffffffffffffffffffffffffff1673ffffffffffffffffffffffffffffffffffffffff168152602001600382015481526020016004820160009054906101000a900460ff161515151581526020016005820154815250509050919050565b60015481565b6200052d6200126e565b3373ffffffffffffffffffffffffffffffffffffffff166108fc6003549081150290604051600060405180830381858888f1935050505015801562000576573d6000803e3d6000fd5b50565b600082905060008290506000825111801562000596575060008151115b620005d8576040517f08c379a0000000000000000000000000000000000000000000000000000000008152600401620005cf9062001e00565b60405180910390fd5b60008484604051620005ea9062001562565b620005f792919062001e63565b604051809103906000f08015801562000614573d6000803e3d6000fd5b5090506000819050604051806040016040528087815260200186815250600560008373ffffffffffffffffffffffffffffffffffffffff1673ffffffffffffffffffffffffffffffffffffffff1681526020019081526020016000209060026200068092919062001570565b507fa89ade6d146463f4b7a97305ec95440ee5010c02fa9874688f9f354e1a666d0981338888604051620006b8949392919062001e9e565b60405180910390a1505050505050565b620006d26200126e565b620006de6000620012f3565b565b60008060009054906101000a900473ffffffffffffffffffffffffffffffffffffffff16905090565b60006004600083815260200190815260200160002090508060020160009054906101000a900473ffffffffffffffffffffffffffffffffffffffff1673ffffffffffffffffffffffffffffffffffffffff163373ffffffffffffffffffffffffffffffffffffffff1614620007b5576040517f08c379a0000000000000000000000000000000000000000000000000000000008152600401620007ac9062001f49565b60405180910390fd5b600115158160040160009054906101000a900460ff1615151462000810576040517f08c379a0000000000000000000000000000000000000000000000000000000008152600401620008079062001fbb565b60405180910390fd5b60008160040160006101000a81548160ff021916908315150217905550600154600260008282546200084391906200200c565b925050819055503373ffffffffffffffffffffffffffffffffffffffff166108fc6001549081150290604051600060405180830381858888f1935050505015801562000893573d6000803e3d6000fd5b507fbd4a1dcea2f615fb2a077051306544e9087dc2a3dd6b380813503495959c4168826000604051620008c892919062002058565b60405180910390a15050565b60006004600084815260200190815260200160002090508060020160009054906101000a900473ffffffffffffffffffffffffffffffffffffffff1673ffffffffffffffffffffffffffffffffffffffff163373ffffffffffffffffffffffffffffffffffffffff161462000980576040517f08c379a00000000000000000000000000000000000000000000000000000000081526004016200097790620020d5565b60405180910390fd5b60008211620009c6576040517f08c379a0000000000000000000000000000000000000000000000000000000008152600401620009bd9062002147565b60405180910390fd5b8181600301819055504281600501819055507f3c1e00868b8eb5937f72951b04738667102a36501a2b80beb9c69b75f08126a5838360405162000a0b92919062002169565b60405180910390a1505050565b806000600460008381526020019081526020016000209050600062278d0090504281836005015462000a4b919062002196565b101562000a8f576040517f08c379a000000000000000000000000000000000000000000000000000000000815260040162000a869062002221565b60405180910390fd5b6000600460008681526020019081526020016000209050600115158160040160009054906101000a900460ff1615151462000b01576040517f08c379a000000000000000000000000000000000000000000000000000000000815260040162000af89062002293565b60405180910390fd5b8060030154341462000b4a576040517f08c379a000000000000000000000000000000000000000000000000000000000815260040162000b41906200232b565b60405180910390fd5b600033905060008260020160009054906101000a900473ffffffffffffffffffffffffffffffffffffffff16905060008360040160006101000a81548160ff0219169083151502179055506001546002600082825462000bab91906200200c565b925050819055506001546003600082825462000bc8919062002196565b925050819055508260000160009054906101000a900473ffffffffffffffffffffffffffffffffffffffff1673ffffffffffffffffffffffffffffffffffffffff166323b872dd828486600101546040518463ffffffff1660e01b815260040162000c3693929190620023b8565b600060405180830381600087803b15801562000c5157600080fd5b505af115801562000c66573d6000803e3d6000fd5b505050508073ffffffffffffffffffffffffffffffffffffffff166108fc349081150290604051600060405180830381858888f1935050505015801562000cb1573d6000803e3d6000fd5b507f9de3a81981e45da30c4b78ef9daa8d0da04288f6b20ac64ecbdc1443fd458f3187833460405162000ce793929190620023f5565b60405180910390a150505050505050565b600082824260405160200162000d119392919062002432565b60405160208183030381529060405280519060200120905092915050565b600062000d3b6200126e565b600254905090565b600062000d4f6200126e565b600354905090565b600154811162000d9e576040517f08c379a000000000000000000000000000000000000000000000000000000000815260040162000d9590620024e5565b60405180910390fd5b600154341462000de5576040517f08c379a000000000000000000000000000000000000000000000000000000000815260040162000ddc9062002557565b60405180910390fd5b62000e176380ac58cd60e01b8473ffffffffffffffffffffffffffffffffffffffff16620013b790919063ffffffff16565b62000e59576040517f08c379a000000000000000000000000000000000000000000000000000000000815260040162000e5090620025ef565b60405180910390fd5b8273ffffffffffffffffffffffffffffffffffffffff1663e985e9c533306040518363ffffffff1660e01b815260040162000e9692919062002611565b602060405180830381865afa15801562000eb4573d6000803e3d6000fd5b505050506040513d601f19601f8201168201806040525081019062000eda91906200266f565b62000f1c576040517f08c379a000000000000000000000000000000000000000000000000000000000815260040162000f139062002717565b60405180910390fd5b600062000f2a848462000cf8565b90506040518060c001604052808573ffffffffffffffffffffffffffffffffffffffff1681526020018481526020013373ffffffffffffffffffffffffffffffffffffffff168152602001838152602001600115158152602001428152506004600083815260200190815260200160002060008201518160000160006101000a81548173ffffffffffffffffffffffffffffffffffffffff021916908373ffffffffffffffffffffffffffffffffffffffff1602179055506020820151816001015560408201518160020160006101000a81548173ffffffffffffffffffffffffffffffffffffffff021916908373ffffffffffffffffffffffffffffffffffffffff1602179055506060820151816003015560808201518160040160006101000a81548160ff02191690831515021790555060a0820151816005015590505034600260008282546200107e919062002196565b925050819055507fb496ce02158f45bee776985c1cfeae7eeaf029494aef9b21782f671a833a64768185853386604051620010be95949392919062002739565b60405180910390a150505050565b620010d6620015c3565b600560008373ffffffffffffffffffffffffffffffffffffffff1673ffffffffffffffffffffffffffffffffffffffff168152602001908152602001600020600280602002604051908101604052809291906000905b82821015620011d95783820180546200114590620027c5565b80601f01602080910402602001604051908101604052809291908181526020018280546200117390620027c5565b8015620011c45780601f106200119857610100808354040283529160200191620011c4565b820191906000526020600020905b815481529060010190602001808311620011a657829003601f168201915b5050505050815260200190600101906200112c565b505050509050919050565b620011ee6200126e565b600073ffffffffffffffffffffffffffffffffffffffff168173ffffffffffffffffffffffffffffffffffffffff160362001260576040517f08c379a0000000000000000000000000000000000000000000000000000000008152600401620012579062002870565b60405180910390fd5b6200126b81620012f3565b50565b62001278620013e1565b73ffffffffffffffffffffffffffffffffffffffff1662001298620006e0565b73ffffffffffffffffffffffffffffffffffffffff1614620012f1576040517f08c379a0000000000000000000000000000000000000000000000000000000008152600401620012e890620028e2565b60405180910390fd5b565b60008060009054906101000a900473ffffffffffffffffffffffffffffffffffffffff169050816000806101000a81548173ffffffffffffffffffffffffffffffffffffffff021916908373ffffffffffffffffffffffffffffffffffffffff1602179055508173ffffffffffffffffffffffffffffffffffffffff168173ffffffffffffffffffffffffffffffffffffffff167f8be0079c531659141344cd1fd0a4f28419497f9722a3daafe3b4186f6b6457e060405160405180910390a35050565b6000620013c483620013e9565b8015620013d95750620013d883836200143b565b5b905092915050565b600033905090565b600062001417827f01ffc9a7000000000000000000000000000000000000000000000000000000006200143b565b8015620014345750620014328263ffffffff60e01b6200143b565b155b9050919050565b6000806301ffc9a760e01b8360405160240162001459919062002941565b604051602081830303815290604052907bffffffffffffffffffffffffffffffffffffffffffffffffffffffff19166020820180517bffffffffffffffffffffffffffffffffffffffffffffffffffffffff838183161783525050505090506000806000602060008551602087018a617530fa92503d91506000519050828015620014e5575060208210155b8015620014f25750600081115b94505050505092915050565b6040518060c00160405280600073ffffffffffffffffffffffffffffffffffffffff16815260200160008152602001600073ffffffffffffffffffffffffffffffffffffffff16815260200160008152602001600015158152602001600081525090565b6131878062002c0e83390190565b8260028101928215620015b0579160200282015b82811115620015af5782518290816200159e919062002b26565b509160200191906001019062001584565b5b509050620015bf9190620015eb565b5090565b60405180604001604052806002905b6060815260200190600190039081620015d25790505090565b5b808211156200160f576000818162001605919062001613565b50600101620015ec565b5090565b5080546200162190620027c5565b6000825580601f1062001635575062001656565b601f01602090049060005260206000209081019062001655919062001659565b5b50565b5b80821115620016745760008160009055506001016200165a565b5090565b6000819050919050565b6200168d8162001678565b82525050565b6000602082019050620016aa600083018462001682565b92915050565b6000604051905090565b600080fd5b600080fd5b6000819050919050565b620016d981620016c4565b8114620016e557600080fd5b50565b600081359050620016f981620016ce565b92915050565b600060208284031215620017185762001717620016ba565b5b60006200172884828501620016e8565b91505092915050565b600073ffffffffffffffffffffffffffffffffffffffff82169050919050565b60006200175e8262001731565b9050919050565b620017708162001751565b82525050565b620017818162001678565b82525050565b6000620017948262001731565b9050919050565b620017a68162001787565b82525050565b60008115159050919050565b620017c381620017ac565b82525050565b60c082016000820151620017e1600085018262001765565b506020820151620017f6602085018262001776565b5060408201516200180b60408501826200179b565b50606082015162001820606085018262001776565b506080820151620018356080850182620017b8565b5060a08201516200184a60a085018262001776565b50505050565b600060c082019050620018676000830184620017c9565b92915050565b600080fd5b600080fd5b6000601f19601f8301169050919050565b7f4e487b7100000000000000000000000000000000000000000000000000000000600052604160045260246000fd5b620018c28262001877565b810181811067ffffffffffffffff82111715620018e457620018e362001888565b5b80604052505050565b6000620018f9620016b0565b9050620019078282620018b7565b919050565b600067ffffffffffffffff8211156200192a576200192962001888565b5b620019358262001877565b9050602081019050919050565b82818337600083830152505050565b60006200196862001962846200190c565b620018ed565b90508281526020810184848401111562001987576200198662001872565b5b6200199484828562001942565b509392505050565b600082601f830112620019b457620019b36200186d565b5b8135620019c684826020860162001951565b91505092915050565b60008060408385031215620019e957620019e8620016ba565b5b600083013567ffffffffffffffff81111562001a0a5762001a09620016bf565b5b62001a18858286016200199c565b925050602083013567ffffffffffffffff81111562001a3c5762001a3b620016bf565b5b62001a4a858286016200199c565b9150509250929050565b62001a5f8162001751565b82525050565b600060208201905062001a7c600083018462001a54565b92915050565b62001a8d8162001678565b811462001a9957600080fd5b50565b60008135905062001aad8162001a82565b92915050565b6000806040838503121562001acd5762001acc620016ba565b5b600062001add85828601620016e8565b925050602062001af08582860162001a9c565b9150509250929050565b62001b058162001751565b811462001b1157600080fd5b50565b60008135905062001b258162001afa565b92915050565b6000806040838503121562001b455762001b44620016ba565b5b600062001b558582860162001b14565b925050602062001b688582860162001a9c565b9150509250929050565b62001b7d81620016c4565b82525050565b600060208201905062001b9a600083018462001b72565b92915050565b60008060006060848603121562001bbc5762001bbb620016ba565b5b600062001bcc8682870162001b14565b935050602062001bdf8682870162001a9c565b925050604062001bf28682870162001a9c565b9150509250925092565b60006020828403121562001c155762001c14620016ba565b5b600062001c258482850162001b14565b91505092915050565b600060029050919050565b600081905092915050565b6000819050919050565b600081519050919050565b600082825260208201905092915050565b60005b8381101562001c8a57808201518184015260208101905062001c6d565b60008484015250505050565b600062001ca38262001c4e565b62001caf818562001c59565b935062001cc181856020860162001c6a565b62001ccc8162001877565b840191505092915050565b600062001ce5838362001c96565b905092915050565b6000602082019050919050565b600062001d078262001c2e565b62001d13818562001c39565b93508360208202850162001d278562001c44565b8060005b8581101562001d69578484038952815162001d47858262001cd7565b945062001d548362001ced565b925060208a0199505060018101905062001d2b565b50829750879550505050505092915050565b6000602082019050818103600083015262001d97818462001cfa565b905092915050565b600082825260208201905092915050565b7f4e616d6520616e642053796d626f6c20617265206d616e6461746f7279000000600082015250565b600062001de8601d8362001d9f565b915062001df58262001db0565b602082019050919050565b6000602082019050818103600083015262001e1b8162001dd9565b9050919050565b600062001e2f8262001c4e565b62001e3b818562001d9f565b935062001e4d81856020860162001c6a565b62001e588162001877565b840191505092915050565b6000604082019050818103600083015262001e7f818562001e22565b9050818103602083015262001e95818462001e22565b90509392505050565b600060808201905062001eb5600083018762001a54565b62001ec4602083018662001a54565b818103604083015262001ed8818562001e22565b9050818103606083015262001eee818462001e22565b905095945050505050565b7f596f752063616e63656c206f6e6c7920796f7572206c697374696e6773000000600082015250565b600062001f31601d8362001d9f565b915062001f3e8262001ef9565b602082019050919050565b6000602082019050818103600083015262001f648162001f22565b9050919050565b7f4c697374696e6720697320616c72656164792063616e63656c65640000000000600082015250565b600062001fa3601b8362001d9f565b915062001fb08262001f6b565b602082019050919050565b6000602082019050818103600083015262001fd68162001f94565b9050919050565b7f4e487b7100000000000000000000000000000000000000000000000000000000600052601160045260246000fd5b6000620020198262001678565b9150620020268362001678565b925082820390508181111562002041576200204062001fdd565b5b92915050565b6200205281620017ac565b82525050565b60006040820190506200206f600083018562001b72565b6200207e602083018462002047565b9392505050565b7f596f752063616e2065646974206f6e6c7920796f7572206c697374696e677300600082015250565b6000620020bd601f8362001d9f565b9150620020ca8262002085565b602082019050919050565b60006020820190508181036000830152620020f081620020ae565b9050919050565b7f5468652070726963652073686f756c64206265206d6f7265207468616e203000600082015250565b60006200212f601f8362001d9f565b91506200213c82620020f7565b602082019050919050565b60006020820190508181036000830152620021628162002120565b9050919050565b600060408201905062002180600083018562001b72565b6200218f602083018462001682565b9392505050565b6000620021a38262001678565b9150620021b08362001678565b9250828201905080821115620021cb57620021ca62001fdd565b5b92915050565b7f54686973206c697374696e672069732065787069726564000000000000000000600082015250565b60006200220960178362001d9f565b91506200221682620021d1565b602082019050919050565b600060208201905081810360008301526200223c81620021fa565b9050919050565b7f54686973206c697374696e67206973206e6f7420616374697665000000000000600082015250565b60006200227b601a8362001d9f565b9150620022888262002243565b602082019050919050565b60006020820190508181036000830152620022ae816200226c565b9050919050565b7f56616c75652073686f756c6420626520657175616c20746f207468652070726960008201527f6365000000000000000000000000000000000000000000000000000000000000602082015250565b60006200231360228362001d9f565b91506200232082620022b5565b604082019050919050565b60006020820190508181036000830152620023468162002304565b9050919050565b6000819050919050565b600062002378620023726200236c8462001731565b6200234d565b62001731565b9050919050565b60006200238c8262002357565b9050919050565b6000620023a0826200237f565b9050919050565b620023b28162002393565b82525050565b6000606082019050620023cf6000830186620023a7565b620023de6020830185620023a7565b620023ed604083018462001682565b949350505050565b60006060820190506200240c600083018662001b72565b6200241b6020830185620023a7565b6200242a604083018462001682565b949350505050565b600060608201905062002449600083018662001a54565b62002458602083018562001682565b62002467604083018462001682565b949350505050565b7f5072696365206d757374206265206d6f7265207468616e206c697374696e672060008201527f6665650000000000000000000000000000000000000000000000000000000000602082015250565b6000620024cd60238362001d9f565b9150620024da826200246f565b604082019050919050565b600060208201905081810360008301526200250081620024be565b9050919050565b7f4e6f7420656e6f75676820657468657220666f72206c697374696e6720666565600082015250565b60006200253f60208362001d9f565b91506200254c8262002507565b602082019050919050565b60006020820190508181036000830152620025728162002530565b9050919050565b7f54686973206d61726b6574706c61636520737570706f7274206f6e6c7920455260008201527f4337323120746f6b656e73000000000000000000000000000000000000000000602082015250565b6000620025d7602b8362001d9f565b9150620025e48262002579565b604082019050919050565b600060208201905081810360008301526200260a81620025c8565b9050919050565b600060408201905062002628600083018562001a54565b62002637602083018462001a54565b9392505050565b6200264981620017ac565b81146200265557600080fd5b50565b60008151905062002669816200263e565b92915050565b600060208284031215620026885762002687620016ba565b5b6000620026988482850162002658565b91505092915050565b7f4c696d65506c6163652073686f756c6420626520617070726f76656420666f7260008201527f206f70657261746f720000000000000000000000000000000000000000000000602082015250565b6000620026ff60298362001d9f565b91506200270c82620026a1565b604082019050919050565b600060208201905081810360008301526200273281620026f0565b9050919050565b600060a08201905062002750600083018862001b72565b6200275f602083018762001a54565b6200276e604083018662001682565b6200277d606083018562001a54565b6200278c608083018462001682565b9695505050505050565b7f4e487b7100000000000000000000000000000000000000000000000000000000600052602260045260246000fd5b60006002820490506001821680620027de57607f821691505b602082108103620027f457620027f362002796565b5b50919050565b7f4f776e61626c653a206e6577206f776e657220697320746865207a65726f206160008201527f6464726573730000000000000000000000000000000000000000000000000000602082015250565b60006200285860268362001d9f565b91506200286582620027fa565b604082019050919050565b600060208201905081810360008301526200288b8162002849565b9050919050565b7f4f776e61626c653a2063616c6c6572206973206e6f7420746865206f776e6572600082015250565b6000620028ca60208362001d9f565b9150620028d78262002892565b602082019050919050565b60006020820190508181036000830152620028fd81620028bb565b9050919050565b60007fffffffff0000000000000000000000000000000000000000000000000000000082169050919050565b6200293b8162002904565b82525050565b600060208201905062002958600083018462002930565b92915050565b60008190508160005260206000209050919050565b60006020601f8301049050919050565b600082821b905092915050565b600060088302620029c27fffffffffffffffffffffffffffffffffffffffffffffffffffffffffffffffff8262002983565b620029ce868362002983565b95508019841693508086168417925050509392505050565b600062002a0762002a01620029fb8462001678565b6200234d565b62001678565b9050919050565b6000819050919050565b62002a2383620029e6565b62002a3b62002a328262002a0e565b84845462002990565b825550505050565b600090565b62002a5262002a43565b62002a5f81848462002a18565b505050565b5b8181101562002a875762002a7b60008262002a48565b60018101905062002a65565b5050565b601f82111562002ad65762002aa0816200295e565b62002aab8462002973565b8101602085101562002abb578190505b62002ad362002aca8562002973565b83018262002a64565b50505b505050565b600082821c905092915050565b600062002afb6000198460080262002adb565b1980831691505092915050565b600062002b16838362002ae8565b9150826002028217905092915050565b62002b318262001c4e565b67ffffffffffffffff81111562002b4d5762002b4c62001888565b5b62002b598254620027c5565b62002b6682828562002a8b565b600060209050601f83116001811462002b9e576000841562002b89578287015190505b62002b95858262002b08565b86555062002c05565b601f19841662002bae866200295e565b60005b8281101562002bd85784890151825560018201915060208501945060208101905062002bb1565b8683101562002bf8578489015162002bf4601f89168262002ae8565b8355505b6001600288020188555050505b50505050505056fe60806040523480156200001157600080fd5b5060405162003187380380620031878339818101604052810190620000379190620001fa565b818181600090816200004a9190620004ca565b5080600190816200005c9190620004ca565b5050505050620005b1565b6000604051905090565b600080fd5b600080fd5b600080fd5b600080fd5b6000601f19601f8301169050919050565b7f4e487b7100000000000000000000000000000000000000000000000000000000600052604160045260246000fd5b620000d08262000085565b810181811067ffffffffffffffff82111715620000f257620000f162000096565b5b80604052505050565b60006200010762000067565b9050620001158282620000c5565b919050565b600067ffffffffffffffff82111562000138576200013762000096565b5b620001438262000085565b9050602081019050919050565b60005b838110156200017057808201518184015260208101905062000153565b60008484015250505050565b6000620001936200018d846200011a565b620000fb565b905082815260208101848484011115620001b257620001b162000080565b5b620001bf84828562000150565b509392505050565b600082601f830112620001df57620001de6200007b565b5b8151620001f18482602086016200017c565b91505092915050565b6000806040838503121562000214576200021362000071565b5b600083015167ffffffffffffffff81111562000235576200023462000076565b5b6200024385828601620001c7565b925050602083015167ffffffffffffffff81111562000267576200026662000076565b5b6200027585828601620001c7565b9150509250929050565b600081519050919050565b7f4e487b7100000000000000000000000000000000000000000000000000000000600052602260045260246000fd5b60006002820490506001821680620002d257607f821691505b602082108103620002e857620002e76200028a565b5b50919050565b60008190508160005260206000209050919050565b60006020601f8301049050919050565b600082821b905092915050565b600060088302620003527fffffffffffffffffffffffffffffffffffffffffffffffffffffffffffffffff8262000313565b6200035e868362000313565b95508019841693508086168417925050509392505050565b6000819050919050565b6000819050919050565b6000620003ab620003a56200039f8462000376565b62000380565b62000376565b9050919050565b6000819050919050565b620003c7836200038a565b620003df620003d682620003b2565b84845462000320565b825550505050565b600090565b620003f6620003e7565b62000403818484620003bc565b505050565b5b818110156200042b576200041f600082620003ec565b60018101905062000409565b5050565b601f8211156200047a576200044481620002ee565b6200044f8462000303565b810160208510156200045f578190505b620004776200046e8562000303565b83018262000408565b50505b505050565b600082821c905092915050565b60006200049f600019846008026200047f565b1980831691505092915050565b6000620004ba83836200048c565b9150826002028217905092915050565b620004d5826200027f565b67ffffffffffffffff811115620004f157620004f062000096565b5b620004fd8254620002b9565b6200050a8282856200042f565b600060209050601f8311600181146200054257600084156200052d578287015190505b620005398582620004ac565b865550620005a9565b601f1984166200055286620002ee565b60005b828110156200057c5784890151825560018201915060208501945060208101905062000555565b868310156200059c578489015162000598601f8916826200048c565b8355505b6001600288020188555050505b505050505050565b612bc680620005c16000396000f3fe608060405234801561001057600080fd5b50600436106100f55760003560e01c806370a0823111610097578063b88d4fde11610066578063b88d4fde14610284578063c87b56dd146102a0578063d85d3d27146102d0578063e985e9c514610300576100f5565b806370a08231146101fc57806395d89b411461022c5780639f181b5e1461024a578063a22cb46514610268576100f5565b8063095ea7b3116100d3578063095ea7b31461017857806323b872dd1461019457806342842e0e146101b05780636352211e146101cc576100f5565b806301ffc9a7146100fa57806306fdde031461012a578063081812fc14610148575b600080fd5b610114600480360381019061010f9190611ac8565b610330565b6040516101219190611b10565b60405180910390f35b610132610391565b60405161013f9190611bbb565b60405180910390f35b610162600480360381019061015d9190611c13565b610423565b60405161016f9190611c81565b60405180910390f35b610192600480360381019061018d9190611cc8565b610469565b005b6101ae60048036038101906101a99190611d08565b610580565b005b6101ca60048036038101906101c59190611d08565b6105e0565b005b6101e660048036038101906101e19190611c13565b610600565b6040516101f39190611c81565b60405180910390f35b61021660048036038101906102119190611d5b565b610686565b6040516102239190611d97565b60405180910390f35b61023461073d565b6040516102419190611bbb565b60405180910390f35b6102526107cf565b60405161025f9190611d97565b60405180910390f35b610282600480360381019061027d9190611dde565b6107db565b005b61029e60048036038101906102999190611f53565b6107f1565b005b6102ba60048036038101906102b59190611c13565b610853565b6040516102c79190611bbb565b60405180910390f35b6102ea60048036038101906102e59190612077565b610965565b6040516102f79190611d97565b60405180910390f35b61031a600480360381019061031591906120c0565b6109e8565b6040516103279190611b10565b60405180910390f35b6000634906490660e01b7bffffffffffffffffffffffffffffffffffffffffffffffffffffffff1916827bffffffffffffffffffffffffffffffffffffffffffffffffffffffff1916148061038a575061038982610a7c565b5b9050919050565b6060600080546103a09061212f565b80601f01602080910402602001604051908101604052809291908181526020018280546103cc9061212f565b80156104195780601f106103ee57610100808354040283529160200191610419565b820191906000526020600020905b8154815290600101906020018083116103fc57829003601f168201915b5050505050905090565b600061042e82610b5e565b6004600083815260200190815260200160002060009054906101000a900473ffffffffffffffffffffffffffffffffffffffff169050919050565b600061047482610600565b90508073ffffffffffffffffffffffffffffffffffffffff168373ffffffffffffffffffffffffffffffffffffffff16036104e4576040517f08c379a00000000000000000000000000000000000000000000000000000000081526004016104db906121d2565b60405180910390fd5b8073ffffffffffffffffffffffffffffffffffffffff16610503610ba9565b73ffffffffffffffffffffffffffffffffffffffff16148061053257506105318161052c610ba9565b6109e8565b5b610571576040517f08c379a000000000000000000000000000000000000000000000000000000000815260040161056890612264565b60405180910390fd5b61057b8383610bb1565b505050565b61059161058b610ba9565b82610c6a565b6105d0576040517f08c379a00000000000000000000000000000000000000000000000000000000081526004016105c7906122f6565b60405180910390fd5b6105db838383610cff565b505050565b6105fb838383604051806020016040528060008152506107f1565b505050565b60008061060c83610ff8565b9050600073ffffffffffffffffffffffffffffffffffffffff168173ffffffffffffffffffffffffffffffffffffffff160361067d576040517f08c379a000000000000000000000000000000000000000000000000000000000815260040161067490612362565b60405180910390fd5b80915050919050565b60008073ffffffffffffffffffffffffffffffffffffffff168273ffffffffffffffffffffffffffffffffffffffff16036106f6576040517f08c379a00000000000000000000000000000000000000000000000000000000081526004016106ed906123f4565b60405180910390fd5b600360008373ffffffffffffffffffffffffffffffffffffffff1673ffffffffffffffffffffffffffffffffffffffff168152602001908152602001600020549050919050565b60606001805461074c9061212f565b80601f01602080910402602001604051908101604052809291908181526020018280546107789061212f565b80156107c55780601f1061079a576101008083540402835291602001916107c5565b820191906000526020600020905b8154815290600101906020018083116107a857829003601f168201915b5050505050905090565b60078060000154905081565b6107ed6107e6610ba9565b8383611035565b5050565b6108026107fc610ba9565b83610c6a565b610841576040517f08c379a0000000000000000000000000000000000000000000000000000000008152600401610838906122f6565b60405180910390fd5b61084d848484846111a1565b50505050565b606061085e82610b5e565b600060066000848152602001908152602001600020805461087e9061212f565b80601f01602080910402602001604051908101604052809291908181526020018280546108aa9061212f565b80156108f75780601f106108cc576101008083540402835291602001916108f7565b820191906000526020600020905b8154815290600101906020018083116108da57829003601f168201915b5050505050905060006109086111fd565b9050600081510361091d578192505050610960565b60008251111561095257808260405160200161093a929190612450565b60405160208183030381529060405292505050610960565b61095b84611214565b925050505b919050565b6000610971600761127c565b6109843361097f6007611292565b6112a0565b6109976109916007611292565b836112be565b7f07883703ed0e86588a40d76551c92f8a4b329e3bf19765e0e6749473c1a846656109c26007611292565b6040516109cf9190611d97565b60405180910390a16109e16007611292565b9050919050565b6000600560008473ffffffffffffffffffffffffffffffffffffffff1673ffffffffffffffffffffffffffffffffffffffff16815260200190815260200160002060008373ffffffffffffffffffffffffffffffffffffffff1673ffffffffffffffffffffffffffffffffffffffff16815260200190815260200160002060009054906101000a900460ff16905092915050565b60007f80ac58cd000000000000000000000000000000000000000000000000000000007bffffffffffffffffffffffffffffffffffffffffffffffffffffffff1916827bffffffffffffffffffffffffffffffffffffffffffffffffffffffff19161480610b4757507f5b5e139f000000000000000000000000000000000000000000000000000000007bffffffffffffffffffffffffffffffffffffffffffffffffffffffff1916827bffffffffffffffffffffffffffffffffffffffffffffffffffffffff1916145b80610b575750610b5682611362565b5b9050919050565b610b67816113cc565b610ba6576040517f08c379a0000000000000000000000000000000000000000000000000000000008152600401610b9d90612362565b60405180910390fd5b50565b600033905090565b816004600083815260200190815260200160002060006101000a81548173ffffffffffffffffffffffffffffffffffffffff021916908373ffffffffffffffffffffffffffffffffffffffff160217905550808273ffffffffffffffffffffffffffffffffffffffff16610c2483610600565b73ffffffffffffffffffffffffffffffffffffffff167f8c5be1e5ebec7d5bd14f71427d1e84f3dd0314c0f7b2291e5b200ac8c7c3b92560405160405180910390a45050565b600080610c7683610600565b90508073ffffffffffffffffffffffffffffffffffffffff168473ffffffffffffffffffffffffffffffffffffffff161480610cb85750610cb781856109e8565b5b80610cf657508373ffffffffffffffffffffffffffffffffffffffff16610cde84610423565b73ffffffffffffffffffffffffffffffffffffffff16145b91505092915050565b8273ffffffffffffffffffffffffffffffffffffffff16610d1f82610600565b73ffffffffffffffffffffffffffffffffffffffff1614610d75576040517f08c379a0000000000000000000000000000000000000000000000000000000008152600401610d6c906124e6565b60405180910390fd5b600073ffffffffffffffffffffffffffffffffffffffff168273ffffffffffffffffffffffffffffffffffffffff1603610de4576040517f08c379a0000000000000000000000000000000000000000000000000000000008152600401610ddb90612578565b60405180910390fd5b610df1838383600161140d565b8273ffffffffffffffffffffffffffffffffffffffff16610e1182610600565b73ffffffffffffffffffffffffffffffffffffffff1614610e67576040517f08c379a0000000000000000000000000000000000000000000000000000000008152600401610e5e906124e6565b60405180910390fd5b6004600082815260200190815260200160002060006101000a81549073ffffffffffffffffffffffffffffffffffffffff02191690556001600360008573ffffffffffffffffffffffffffffffffffffffff1673ffffffffffffffffffffffffffffffffffffffff168152602001908152602001600020600082825403925050819055506001600360008473ffffffffffffffffffffffffffffffffffffffff1673ffffffffffffffffffffffffffffffffffffffff16815260200190815260200160002060008282540192505081905550816002600083815260200190815260200160002060006101000a81548173ffffffffffffffffffffffffffffffffffffffff021916908373ffffffffffffffffffffffffffffffffffffffff160217905550808273ffffffffffffffffffffffffffffffffffffffff168473ffffffffffffffffffffffffffffffffffffffff167fddf252ad1be2c89b69c2b068fc378daa952ba7f163c4a11628f55a4df523b3ef60405160405180910390a4610ff38383836001611413565b505050565b60006002600083815260200190815260200160002060009054906101000a900473ffffffffffffffffffffffffffffffffffffffff169050919050565b8173ffffffffffffffffffffffffffffffffffffffff168373ffffffffffffffffffffffffffffffffffffffff16036110a3576040517f08c379a000000000000000000000000000000000000000000000000000000000815260040161109a906125e4565b60405180910390fd5b80600560008573ffffffffffffffffffffffffffffffffffffffff1673ffffffffffffffffffffffffffffffffffffffff16815260200190815260200160002060008473ffffffffffffffffffffffffffffffffffffffff1673ffffffffffffffffffffffffffffffffffffffff16815260200190815260200160002060006101000a81548160ff0219169083151502179055508173ffffffffffffffffffffffffffffffffffffffff168373ffffffffffffffffffffffffffffffffffffffff167f17307eab39ab6107e8899845ad3d59bd9653f200f220920489ca2b5937696c31836040516111949190611b10565b60405180910390a3505050565b6111ac848484610cff565b6111b884848484611419565b6111f7576040517f08c379a00000000000000000000000000000000000000000000000000000000081526004016111ee90612676565b60405180910390fd5b50505050565b606060405180602001604052806000815250905090565b606061121f82610b5e565b60006112296111fd565b905060008151116112495760405180602001604052806000815250611274565b80611253846115a0565b604051602001611264929190612450565b6040516020818303038152906040525b915050919050565b6001816000016000828254019250508190555050565b600081600001549050919050565b6112ba82826040518060200160405280600081525061166e565b5050565b6112c7826113cc565b611306576040517f08c379a00000000000000000000000000000000000000000000000000000000081526004016112fd90612708565b60405180910390fd5b8060066000848152602001908152602001600020908161132691906128d4565b507ff8e1a15aba9398e019f0b49df1a4fde98ee17ae345cb5f6b5e2c27f5033e8ce7826040516113569190611d97565b60405180910390a15050565b60007f01ffc9a7000000000000000000000000000000000000000000000000000000007bffffffffffffffffffffffffffffffffffffffffffffffffffffffff1916827bffffffffffffffffffffffffffffffffffffffffffffffffffffffff1916149050919050565b60008073ffffffffffffffffffffffffffffffffffffffff166113ee83610ff8565b73ffffffffffffffffffffffffffffffffffffffff1614159050919050565b50505050565b50505050565b600061143a8473ffffffffffffffffffffffffffffffffffffffff166116c9565b15611593578373ffffffffffffffffffffffffffffffffffffffff1663150b7a02611463610ba9565b8786866040518563ffffffff1660e01b815260040161148594939291906129fb565b6020604051808303816000875af19250505080156114c157506040513d601f19601f820116820180604052508101906114be9190612a5c565b60015b611543573d80600081146114f1576040519150601f19603f3d011682016040523d82523d6000602084013e6114f6565b606091505b50600081510361153b576040517f08c379a000000000000000000000000000000000000000000000000000000000815260040161153290612676565b60405180910390fd5b805181602001fd5b63150b7a0260e01b7bffffffffffffffffffffffffffffffffffffffffffffffffffffffff1916817bffffffffffffffffffffffffffffffffffffffffffffffffffffffff191614915050611598565b600190505b949350505050565b6060600060016115af846116ec565b01905060008167ffffffffffffffff8111156115ce576115cd611e28565b5b6040519080825280601f01601f1916602001820160405280156116005781602001600182028036833780820191505090505b509050600082602001820190505b600115611663578080600190039150507f3031323334353637383961626364656600000000000000000000000000000000600a86061a8153600a858161165757611656612a89565b5b0494506000850361160e575b819350505050919050565b611678838361183f565b6116856000848484611419565b6116c4576040517f08c379a00000000000000000000000000000000000000000000000000000000081526004016116bb90612676565b60405180910390fd5b505050565b6000808273ffffffffffffffffffffffffffffffffffffffff163b119050919050565b600080600090507a184f03e93ff9f4daa797ed6e38ed64bf6a1f010000000000000000831061174a577a184f03e93ff9f4daa797ed6e38ed64bf6a1f01000000000000000083816117405761173f612a89565b5b0492506040810190505b6d04ee2d6d415b85acef81000000008310611787576d04ee2d6d415b85acef8100000000838161177d5761177c612a89565b5b0492506020810190505b662386f26fc1000083106117b657662386f26fc1000083816117ac576117ab612a89565b5b0492506010810190505b6305f5e10083106117df576305f5e10083816117d5576117d4612a89565b5b0492506008810190505b61271083106118045761271083816117fa576117f9612a89565b5b0492506004810190505b60648310611827576064838161181d5761181c612a89565b5b0492506002810190505b600a8310611836576001810190505b80915050919050565b600073ffffffffffffffffffffffffffffffffffffffff168273ffffffffffffffffffffffffffffffffffffffff16036118ae576040517f08c379a00000000000000000000000000000000000000000000000000000000081526004016118a590612b04565b60405180910390fd5b6118b7816113cc565b156118f7576040517f08c379a00000000000000000000000000000000000000000000000000000000081526004016118ee90612b70565b60405180910390fd5b61190560008383600161140d565b61190e816113cc565b1561194e576040517f08c379a000000000000000000000000000000000000000000000000000000000815260040161194590612b70565b60405180910390fd5b6001600360008473ffffffffffffffffffffffffffffffffffffffff1673ffffffffffffffffffffffffffffffffffffffff16815260200190815260200160002060008282540192505081905550816002600083815260200190815260200160002060006101000a81548173ffffffffffffffffffffffffffffffffffffffff021916908373ffffffffffffffffffffffffffffffffffffffff160217905550808273ffffffffffffffffffffffffffffffffffffffff16600073ffffffffffffffffffffffffffffffffffffffff167fddf252ad1be2c89b69c2b068fc378daa952ba7f163c4a11628f55a4df523b3ef60405160405180910390a4611a58600083836001611413565b5050565b6000604051905090565b600080fd5b600080fd5b60007fffffffff0000000000000000000000000000000000000000000000000000000082169050919050565b611aa581611a70565b8114611ab057600080fd5b50565b600081359050611ac281611a9c565b92915050565b600060208284031215611ade57611add611a66565b5b6000611aec84828501611ab3565b91505092915050565b60008115159050919050565b611b0a81611af5565b82525050565b6000602082019050611b256000830184611b01565b92915050565b600081519050919050565b600082825260208201905092915050565b60005b83811015611b65578082015181840152602081019050611b4a565b60008484015250505050565b6000601f19601f8301169050919050565b6000611b8d82611b2b565b611b978185611b36565b9350611ba7818560208601611b47565b611bb081611b71565b840191505092915050565b60006020820190508181036000830152611bd58184611b82565b905092915050565b6000819050919050565b611bf081611bdd565b8114611bfb57600080fd5b50565b600081359050611c0d81611be7565b92915050565b600060208284031215611c2957611c28611a66565b5b6000611c3784828501611bfe565b91505092915050565b600073ffffffffffffffffffffffffffffffffffffffff82169050919050565b6000611c6b82611c40565b9050919050565b611c7b81611c60565b82525050565b6000602082019050611c966000830184611c72565b92915050565b611ca581611c60565b8114611cb057600080fd5b50565b600081359050611cc281611c9c565b92915050565b60008060408385031215611cdf57611cde611a66565b5b6000611ced85828601611cb3565b9250506020611cfe85828601611bfe565b9150509250929050565b600080600060608486031215611d2157611d20611a66565b5b6000611d2f86828701611cb3565b9350506020611d4086828701611cb3565b9250506040611d5186828701611bfe565b9150509250925092565b600060208284031215611d7157611d70611a66565b5b6000611d7f84828501611cb3565b91505092915050565b611d9181611bdd565b82525050565b6000602082019050611dac6000830184611d88565b92915050565b611dbb81611af5565b8114611dc657600080fd5b50565b600081359050611dd881611db2565b92915050565b60008060408385031215611df557611df4611a66565b5b6000611e0385828601611cb3565b9250506020611e1485828601611dc9565b9150509250929050565b600080fd5b600080fd5b7f4e487b7100000000000000000000000000000000000000000000000000000000600052604160045260246000fd5b611e6082611b71565b810181811067ffffffffffffffff82111715611e7f57611e7e611e28565b5b80604052505050565b6000611e92611a5c565b9050611e9e8282611e57565b919050565b600067ffffffffffffffff821115611ebe57611ebd611e28565b5b611ec782611b71565b9050602081019050919050565b82818337600083830152505050565b6000611ef6611ef184611ea3565b611e88565b905082815260208101848484011115611f1257611f11611e23565b5b611f1d848285611ed4565b509392505050565b600082601f830112611f3a57611f39611e1e565b5b8135611f4a848260208601611ee3565b91505092915050565b60008060008060808587031215611f6d57611f6c611a66565b5b6000611f7b87828801611cb3565b9450506020611f8c87828801611cb3565b9350506040611f9d87828801611bfe565b925050606085013567ffffffffffffffff811115611fbe57611fbd611a6b565b5b611fca87828801611f25565b91505092959194509250565b600067ffffffffffffffff821115611ff157611ff0611e28565b5b611ffa82611b71565b9050602081019050919050565b600061201a61201584611fd6565b611e88565b90508281526020810184848401111561203657612035611e23565b5b612041848285611ed4565b509392505050565b600082601f83011261205e5761205d611e1e565b5b813561206e848260208601612007565b91505092915050565b60006020828403121561208d5761208c611a66565b5b600082013567ffffffffffffffff8111156120ab576120aa611a6b565b5b6120b784828501612049565b91505092915050565b600080604083850312156120d7576120d6611a66565b5b60006120e585828601611cb3565b92505060206120f685828601611cb3565b9150509250929050565b7f4e487b7100000000000000000000000000000000000000000000000000000000600052602260045260246000fd5b6000600282049050600182168061214757607f821691505b60208210810361215a57612159612100565b5b50919050565b7f4552433732313a20617070726f76616c20746f2063757272656e74206f776e6560008201527f7200000000000000000000000000000000000000000000000000000000000000602082015250565b60006121bc602183611b36565b91506121c782612160565b604082019050919050565b600060208201905081810360008301526121eb816121af565b9050919050565b7f4552433732313a20617070726f76652063616c6c6572206973206e6f7420746f60008201527f6b656e206f776e6572206f7220617070726f76656420666f7220616c6c000000602082015250565b600061224e603d83611b36565b9150612259826121f2565b604082019050919050565b6000602082019050818103600083015261227d81612241565b9050919050565b7f4552433732313a2063616c6c6572206973206e6f7420746f6b656e206f776e6560008201527f72206f7220617070726f76656400000000000000000000000000000000000000602082015250565b60006122e0602d83611b36565b91506122eb82612284565b604082019050919050565b6000602082019050818103600083015261230f816122d3565b9050919050565b7f4552433732313a20696e76616c696420746f6b656e2049440000000000000000600082015250565b600061234c601883611b36565b915061235782612316565b602082019050919050565b6000602082019050818103600083015261237b8161233f565b9050919050565b7f4552433732313a2061646472657373207a65726f206973206e6f74206120766160008201527f6c6964206f776e65720000000000000000000000000000000000000000000000602082015250565b60006123de602983611b36565b91506123e982612382565b604082019050919050565b6000602082019050818103600083015261240d816123d1565b9050919050565b600081905092915050565b600061242a82611b2b565b6124348185612414565b9350612444818560208601611b47565b80840191505092915050565b600061245c828561241f565b9150612468828461241f565b91508190509392505050565b7f4552433732313a207472616e736665722066726f6d20696e636f72726563742060008201527f6f776e6572000000000000000000000000000000000000000000000000000000602082015250565b60006124d0602583611b36565b91506124db82612474565b604082019050919050565b600060208201905081810360008301526124ff816124c3565b9050919050565b7f4552433732313a207472616e7366657220746f20746865207a65726f2061646460008201527f7265737300000000000000000000000000000000000000000000000000000000602082015250565b6000612562602483611b36565b915061256d82612506565b604082019050919050565b6000602082019050818103600083015261259181612555565b9050919050565b7f4552433732313a20617070726f766520746f2063616c6c657200000000000000600082015250565b60006125ce601983611b36565b91506125d982612598565b602082019050919050565b600060208201905081810360008301526125fd816125c1565b9050919050565b7f4552433732313a207472616e7366657220746f206e6f6e20455243373231526560008201527f63656976657220696d706c656d656e7465720000000000000000000000000000602082015250565b6000612660603283611b36565b915061266b82612604565b604082019050919050565b6000602082019050818103600083015261268f81612653565b9050919050565b7f45524337323155524953746f726167653a2055524920736574206f66206e6f6e60008201527f6578697374656e7420746f6b656e000000000000000000000000000000000000602082015250565b60006126f2602e83611b36565b91506126fd82612696565b604082019050919050565b60006020820190508181036000830152612721816126e5565b9050919050565b60008190508160005260206000209050919050565b60006020601f8301049050919050565b600082821b905092915050565b60006008830261278a7fffffffffffffffffffffffffffffffffffffffffffffffffffffffffffffffff8261274d565b612794868361274d565b95508019841693508086168417925050509392505050565b6000819050919050565b60006127d16127cc6127c784611bdd565b6127ac565b611bdd565b9050919050565b6000819050919050565b6127eb836127b6565b6127ff6127f7826127d8565b84845461275a565b825550505050565b600090565b612814612807565b61281f8184846127e2565b505050565b5b818110156128435761283860008261280c565b600181019050612825565b5050565b601f8211156128885761285981612728565b6128628461273d565b81016020851015612871578190505b61288561287d8561273d565b830182612824565b50505b505050565b600082821c905092915050565b60006128ab6000198460080261288d565b1980831691505092915050565b60006128c4838361289a565b9150826002028217905092915050565b6128dd82611b2b565b67ffffffffffffffff8111156128f6576128f5611e28565b5b612900825461212f565b61290b828285612847565b600060209050601f83116001811461293e576000841561292c578287015190505b61293685826128b8565b86555061299e565b601f19841661294c86612728565b60005b828110156129745784890151825560018201915060208501945060208101905061294f565b86831015612991578489015161298d601f89168261289a565b8355505b6001600288020188555050505b505050505050565b600081519050919050565b600082825260208201905092915050565b60006129cd826129a6565b6129d781856129b1565b93506129e7818560208601611b47565b6129f081611b71565b840191505092915050565b6000608082019050612a106000830187611c72565b612a1d6020830186611c72565b612a2a6040830185611d88565b8181036060830152612a3c81846129c2565b905095945050505050565b600081519050612a5681611a9c565b92915050565b600060208284031215612a7257612a71611a66565b5b6000612a8084828501612a47565b91505092915050565b7f4e487b7100000000000000000000000000000000000000000000000000000000600052601260045260246000fd5b7f4552433732313a206d696e7420746f20746865207a65726f2061646472657373600082015250565b6000612aee602083611b36565b9150612af982612ab8565b602082019050919050565b60006020820190508181036000830152612b1d81612ae1565b9050919050565b7f4552433732313a20746f6b656e20616c7265616479206d696e74656400000000600082015250565b6000612b5a601c83611b36565b9150612b6582612b24565b602082019050919050565b60006020820190508181036000830152612b8981612b4d565b905091905056fea264697066735822122079921362944a1aebd379a80e6dc4f02972e526e8a1a1972f7611742db37a29e564736f6c63430008120033a2646970667358221220bc8ff9fb59c63af71af11e7e1a0532340da28915532a287e6cf4ff689b93d26164736f6c63430008120033",
  "linkReferences": {},
  "deployedLinkReferences": {}
}