{
  "_format": "hh-sol-artifact-1",
  "contractName": "LimePlaceNFT",
  "sourceName": "contracts/LimePlaceNFT.sol",
  "abi": [
    {
      "inputs": [
        {
          "internalType": "string",
          "name": "name",
          "type": "string"
        },
        {
          "internalType": "string",
          "name": "symbol",
          "type": "string"
        }
      ],
      "stateMutability": "nonpayable",
      "type": "constructor"
    },
    {
      "anonymous": false,
      "inputs": [
        {
          "indexed": true,
          "internalType": "address",
          "name": "owner",
          "type": "address"
        },
        {
          "indexed": true,
          "internalType": "address",
          "name": "approved",
          "type": "address"
        },
        {
          "indexed": true,
          "internalType": "uint256",
          "name": "tokenId",
          "type": "uint256"
        }
      ],
      "name": "Approval",
      "type": "event"
    },
    {
      "anonymous": false,
      "inputs": [
        {
          "indexed": true,
          "internalType": "address",
          "name": "owner",
          "type": "address"
        },
        {
          "indexed": true,
          "internalType": "address",
          "name": "operator",
          "type": "address"
        },
        {
          "indexed": false,
          "internalType": "bool",
          "name": "approved",
          "type": "bool"
        }
      ],
      "name": "ApprovalForAll",
      "type": "event"
    },
    {
      "anonymous": false,
      "inputs": [
        {
          "indexed": false,
          "internalType": "uint256",
          "name": "_fromTokenId",
          "type": "uint256"
        },
        {
          "indexed": false,
          "internalType": "uint256",
          "name": "_toTokenId",
          "type": "uint256"
        }
      ],
      "name": "BatchMetadataUpdate",
      "type": "event"
    },
    {
      "anonymous": false,
      "inputs": [
        {
          "indexed": false,
          "internalType": "uint256",
          "name": "_tokenId",
          "type": "uint256"
        }
      ],
      "name": "MetadataUpdate",
      "type": "event"
    },
    {
      "anonymous": false,
      "inputs": [
        {
          "indexed": false,
          "internalType": "uint256",
          "name": "_tokenId",
          "type": "uint256"
        }
      ],
      "name": "Mint",
      "type": "event"
    },
    {
      "anonymous": false,
      "inputs": [
        {
          "indexed": true,
          "internalType": "address",
          "name": "from",
          "type": "address"
        },
        {
          "indexed": true,
          "internalType": "address",
          "name": "to",
          "type": "address"
        },
        {
          "indexed": true,
          "internalType": "uint256",
          "name": "tokenId",
          "type": "uint256"
        }
      ],
      "name": "Transfer",
      "type": "event"
    },
    {
      "inputs": [
        {
          "internalType": "address",
          "name": "to",
          "type": "address"
        },
        {
          "internalType": "uint256",
          "name": "tokenId",
          "type": "uint256"
        }
      ],
      "name": "approve",
      "outputs": [],
      "stateMutability": "nonpayable",
      "type": "function"
    },
    {
      "inputs": [
        {
          "internalType": "address",
          "name": "owner",
          "type": "address"
        }
      ],
      "name": "balanceOf",
      "outputs": [
        {
          "internalType": "uint256",
          "name": "",
          "type": "uint256"
        }
      ],
      "stateMutability": "view",
      "type": "function"
    },
    {
      "inputs": [
        {
          "internalType": "uint256",
          "name": "tokenId",
          "type": "uint256"
        }
      ],
      "name": "getApproved",
      "outputs": [
        {
          "internalType": "address",
          "name": "",
          "type": "address"
        }
      ],
      "stateMutability": "view",
      "type": "function"
    },
    {
      "inputs": [
        {
          "internalType": "address",
          "name": "owner",
          "type": "address"
        },
        {
          "internalType": "address",
          "name": "operator",
          "type": "address"
        }
      ],
      "name": "isApprovedForAll",
      "outputs": [
        {
          "internalType": "bool",
          "name": "",
          "type": "bool"
        }
      ],
      "stateMutability": "view",
      "type": "function"
    },
    {
      "inputs": [
        {
          "internalType": "string",
          "name": "_tokenURI",
          "type": "string"
        }
      ],
      "name": "mint",
      "outputs": [
        {
          "internalType": "uint256",
          "name": "",
          "type": "uint256"
        }
      ],
      "stateMutability": "nonpayable",
      "type": "function"
    },
    {
      "inputs": [],
      "name": "name",
      "outputs": [
        {
          "internalType": "string",
          "name": "",
          "type": "string"
        }
      ],
      "stateMutability": "view",
      "type": "function"
    },
    {
      "inputs": [
        {
          "internalType": "uint256",
          "name": "tokenId",
          "type": "uint256"
        }
      ],
      "name": "ownerOf",
      "outputs": [
        {
          "internalType": "address",
          "name": "",
          "type": "address"
        }
      ],
      "stateMutability": "view",
      "type": "function"
    },
    {
      "inputs": [
        {
          "internalType": "address",
          "name": "from",
          "type": "address"
        },
        {
          "internalType": "address",
          "name": "to",
          "type": "address"
        },
        {
          "internalType": "uint256",
          "name": "tokenId",
          "type": "uint256"
        }
      ],
      "name": "safeTransferFrom",
      "outputs": [],
      "stateMutability": "nonpayable",
      "type": "function"
    },
    {
      "inputs": [
        {
          "internalType": "address",
          "name": "from",
          "type": "address"
        },
        {
          "internalType": "address",
          "name": "to",
          "type": "address"
        },
        {
          "internalType": "uint256",
          "name": "tokenId",
          "type": "uint256"
        },
        {
          "internalType": "bytes",
          "name": "data",
          "type": "bytes"
        }
      ],
      "name": "safeTransferFrom",
      "outputs": [],
      "stateMutability": "nonpayable",
      "type": "function"
    },
    {
      "inputs": [
        {
          "internalType": "address",
          "name": "operator",
          "type": "address"
        },
        {
          "internalType": "bool",
          "name": "approved",
          "type": "bool"
        }
      ],
      "name": "setApprovalForAll",
      "outputs": [],
      "stateMutability": "nonpayable",
      "type": "function"
    },
    {
      "inputs": [
        {
          "internalType": "bytes4",
          "name": "interfaceId",
          "type": "bytes4"
        }
      ],
      "name": "supportsInterface",
      "outputs": [
        {
          "internalType": "bool",
          "name": "",
          "type": "bool"
        }
      ],
      "stateMutability": "view",
      "type": "function"
    },
    {
      "inputs": [],
      "name": "symbol",
      "outputs": [
        {
          "internalType": "string",
          "name": "",
          "type": "string"
        }
      ],
      "stateMutability": "view",
      "type": "function"
    },
    {
      "inputs": [],
      "name": "tokenCount",
      "outputs": [
        {
          "internalType": "uint256",
          "name": "_value",
          "type": "uint256"
        }
      ],
      "stateMutability": "view",
      "type": "function"
    },
    {
      "inputs": [
        {
          "internalType": "uint256",
          "name": "tokenId",
          "type": "uint256"
        }
      ],
      "name": "tokenURI",
      "outputs": [
        {
          "internalType": "string",
          "name": "",
          "type": "string"
        }
      ],
      "stateMutability": "view",
      "type": "function"
    },
    {
      "inputs": [
        {
          "internalType": "address",
          "name": "from",
          "type": "address"
        },
        {
          "internalType": "address",
          "name": "to",
          "type": "address"
        },
        {
          "internalType": "uint256",
          "name": "tokenId",
          "type": "uint256"
        }
      ],
      "name": "transferFrom",
      "outputs": [],
      "stateMutability": "nonpayable",
      "type": "function"
    }
  ],
  "bytecode": "0x60806040523480156200001157600080fd5b5060405162003187380380620031878339818101604052810190620000379190620001fa565b818181600090816200004a9190620004ca565b5080600190816200005c9190620004ca565b5050505050620005b1565b6000604051905090565b600080fd5b600080fd5b600080fd5b600080fd5b6000601f19601f8301169050919050565b7f4e487b7100000000000000000000000000000000000000000000000000000000600052604160045260246000fd5b620000d08262000085565b810181811067ffffffffffffffff82111715620000f257620000f162000096565b5b80604052505050565b60006200010762000067565b9050620001158282620000c5565b919050565b600067ffffffffffffffff82111562000138576200013762000096565b5b620001438262000085565b9050602081019050919050565b60005b838110156200017057808201518184015260208101905062000153565b60008484015250505050565b6000620001936200018d846200011a565b620000fb565b905082815260208101848484011115620001b257620001b162000080565b5b620001bf84828562000150565b509392505050565b600082601f830112620001df57620001de6200007b565b5b8151620001f18482602086016200017c565b91505092915050565b6000806040838503121562000214576200021362000071565b5b600083015167ffffffffffffffff81111562000235576200023462000076565b5b6200024385828601620001c7565b925050602083015167ffffffffffffffff81111562000267576200026662000076565b5b6200027585828601620001c7565b9150509250929050565b600081519050919050565b7f4e487b7100000000000000000000000000000000000000000000000000000000600052602260045260246000fd5b60006002820490506001821680620002d257607f821691505b602082108103620002e857620002e76200028a565b5b50919050565b60008190508160005260206000209050919050565b60006020601f8301049050919050565b600082821b905092915050565b600060088302620003527fffffffffffffffffffffffffffffffffffffffffffffffffffffffffffffffff8262000313565b6200035e868362000313565b95508019841693508086168417925050509392505050565b6000819050919050565b6000819050919050565b6000620003ab620003a56200039f8462000376565b62000380565b62000376565b9050919050565b6000819050919050565b620003c7836200038a565b620003df620003d682620003b2565b84845462000320565b825550505050565b600090565b620003f6620003e7565b62000403818484620003bc565b505050565b5b818110156200042b576200041f600082620003ec565b60018101905062000409565b5050565b601f8211156200047a576200044481620002ee565b6200044f8462000303565b810160208510156200045f578190505b620004776200046e8562000303565b83018262000408565b50505b505050565b600082821c905092915050565b60006200049f600019846008026200047f565b1980831691505092915050565b6000620004ba83836200048c565b9150826002028217905092915050565b620004d5826200027f565b67ffffffffffffffff811115620004f157620004f062000096565b5b620004fd8254620002b9565b6200050a8282856200042f565b600060209050601f8311600181146200054257600084156200052d578287015190505b620005398582620004ac565b865550620005a9565b601f1984166200055286620002ee565b60005b828110156200057c5784890151825560018201915060208501945060208101905062000555565b868310156200059c578489015162000598601f8916826200048c565b8355505b6001600288020188555050505b505050505050565b612bc680620005c16000396000f3fe608060405234801561001057600080fd5b50600436106100f55760003560e01c806370a0823111610097578063b88d4fde11610066578063b88d4fde14610284578063c87b56dd146102a0578063d85d3d27146102d0578063e985e9c514610300576100f5565b806370a08231146101fc57806395d89b411461022c5780639f181b5e1461024a578063a22cb46514610268576100f5565b8063095ea7b3116100d3578063095ea7b31461017857806323b872dd1461019457806342842e0e146101b05780636352211e146101cc576100f5565b806301ffc9a7146100fa57806306fdde031461012a578063081812fc14610148575b600080fd5b610114600480360381019061010f9190611ac8565b610330565b6040516101219190611b10565b60405180910390f35b610132610391565b60405161013f9190611bbb565b60405180910390f35b610162600480360381019061015d9190611c13565b610423565b60405161016f9190611c81565b60405180910390f35b610192600480360381019061018d9190611cc8565b610469565b005b6101ae60048036038101906101a99190611d08565b610580565b005b6101ca60048036038101906101c59190611d08565b6105e0565b005b6101e660048036038101906101e19190611c13565b610600565b6040516101f39190611c81565b60405180910390f35b61021660048036038101906102119190611d5b565b610686565b6040516102239190611d97565b60405180910390f35b61023461073d565b6040516102419190611bbb565b60405180910390f35b6102526107cf565b60405161025f9190611d97565b60405180910390f35b610282600480360381019061027d9190611dde565b6107db565b005b61029e60048036038101906102999190611f53565b6107f1565b005b6102ba60048036038101906102b59190611c13565b610853565b6040516102c79190611bbb565b60405180910390f35b6102ea60048036038101906102e59190612077565b610965565b6040516102f79190611d97565b60405180910390f35b61031a600480360381019061031591906120c0565b6109e8565b6040516103279190611b10565b60405180910390f35b6000634906490660e01b7bffffffffffffffffffffffffffffffffffffffffffffffffffffffff1916827bffffffffffffffffffffffffffffffffffffffffffffffffffffffff1916148061038a575061038982610a7c565b5b9050919050565b6060600080546103a09061212f565b80601f01602080910402602001604051908101604052809291908181526020018280546103cc9061212f565b80156104195780601f106103ee57610100808354040283529160200191610419565b820191906000526020600020905b8154815290600101906020018083116103fc57829003601f168201915b5050505050905090565b600061042e82610b5e565b6004600083815260200190815260200160002060009054906101000a900473ffffffffffffffffffffffffffffffffffffffff169050919050565b600061047482610600565b90508073ffffffffffffffffffffffffffffffffffffffff168373ffffffffffffffffffffffffffffffffffffffff16036104e4576040517f08c379a00000000000000000000000000000000000000000000000000000000081526004016104db906121d2565b60405180910390fd5b8073ffffffffffffffffffffffffffffffffffffffff16610503610ba9565b73ffffffffffffffffffffffffffffffffffffffff16148061053257506105318161052c610ba9565b6109e8565b5b610571576040517f08c379a000000000000000000000000000000000000000000000000000000000815260040161056890612264565b60405180910390fd5b61057b8383610bb1565b505050565b61059161058b610ba9565b82610c6a565b6105d0576040517f08c379a00000000000000000000000000000000000000000000000000000000081526004016105c7906122f6565b60405180910390fd5b6105db838383610cff565b505050565b6105fb838383604051806020016040528060008152506107f1565b505050565b60008061060c83610ff8565b9050600073ffffffffffffffffffffffffffffffffffffffff168173ffffffffffffffffffffffffffffffffffffffff160361067d576040517f08c379a000000000000000000000000000000000000000000000000000000000815260040161067490612362565b60405180910390fd5b80915050919050565b60008073ffffffffffffffffffffffffffffffffffffffff168273ffffffffffffffffffffffffffffffffffffffff16036106f6576040517f08c379a00000000000000000000000000000000000000000000000000000000081526004016106ed906123f4565b60405180910390fd5b600360008373ffffffffffffffffffffffffffffffffffffffff1673ffffffffffffffffffffffffffffffffffffffff168152602001908152602001600020549050919050565b60606001805461074c9061212f565b80601f01602080910402602001604051908101604052809291908181526020018280546107789061212f565b80156107c55780601f1061079a576101008083540402835291602001916107c5565b820191906000526020600020905b8154815290600101906020018083116107a857829003601f168201915b5050505050905090565b60078060000154905081565b6107ed6107e6610ba9565b8383611035565b5050565b6108026107fc610ba9565b83610c6a565b610841576040517f08c379a0000000000000000000000000000000000000000000000000000000008152600401610838906122f6565b60405180910390fd5b61084d848484846111a1565b50505050565b606061085e82610b5e565b600060066000848152602001908152602001600020805461087e9061212f565b80601f01602080910402602001604051908101604052809291908181526020018280546108aa9061212f565b80156108f75780601f106108cc576101008083540402835291602001916108f7565b820191906000526020600020905b8154815290600101906020018083116108da57829003601f168201915b5050505050905060006109086111fd565b9050600081510361091d578192505050610960565b60008251111561095257808260405160200161093a929190612450565b60405160208183030381529060405292505050610960565b61095b84611214565b925050505b919050565b6000610971600761127c565b6109843361097f6007611292565b6112a0565b6109976109916007611292565b836112be565b7f07883703ed0e86588a40d76551c92f8a4b329e3bf19765e0e6749473c1a846656109c26007611292565b6040516109cf9190611d97565b60405180910390a16109e16007611292565b9050919050565b6000600560008473ffffffffffffffffffffffffffffffffffffffff1673ffffffffffffffffffffffffffffffffffffffff16815260200190815260200160002060008373ffffffffffffffffffffffffffffffffffffffff1673ffffffffffffffffffffffffffffffffffffffff16815260200190815260200160002060009054906101000a900460ff16905092915050565b60007f80ac58cd000000000000000000000000000000000000000000000000000000007bffffffffffffffffffffffffffffffffffffffffffffffffffffffff1916827bffffffffffffffffffffffffffffffffffffffffffffffffffffffff19161480610b4757507f5b5e139f000000000000000000000000000000000000000000000000000000007bffffffffffffffffffffffffffffffffffffffffffffffffffffffff1916827bffffffffffffffffffffffffffffffffffffffffffffffffffffffff1916145b80610b575750610b5682611362565b5b9050919050565b610b67816113cc565b610ba6576040517f08c379a0000000000000000000000000000000000000000000000000000000008152600401610b9d90612362565b60405180910390fd5b50565b600033905090565b816004600083815260200190815260200160002060006101000a81548173ffffffffffffffffffffffffffffffffffffffff021916908373ffffffffffffffffffffffffffffffffffffffff160217905550808273ffffffffffffffffffffffffffffffffffffffff16610c2483610600565b73ffffffffffffffffffffffffffffffffffffffff167f8c5be1e5ebec7d5bd14f71427d1e84f3dd0314c0f7b2291e5b200ac8c7c3b92560405160405180910390a45050565b600080610c7683610600565b90508073ffffffffffffffffffffffffffffffffffffffff168473ffffffffffffffffffffffffffffffffffffffff161480610cb85750610cb781856109e8565b5b80610cf657508373ffffffffffffffffffffffffffffffffffffffff16610cde84610423565b73ffffffffffffffffffffffffffffffffffffffff16145b91505092915050565b8273ffffffffffffffffffffffffffffffffffffffff16610d1f82610600565b73ffffffffffffffffffffffffffffffffffffffff1614610d75576040517f08c379a0000000000000000000000000000000000000000000000000000000008152600401610d6c906124e6565b60405180910390fd5b600073ffffffffffffffffffffffffffffffffffffffff168273ffffffffffffffffffffffffffffffffffffffff1603610de4576040517f08c379a0000000000000000000000000000000000000000000000000000000008152600401610ddb90612578565b60405180910390fd5b610df1838383600161140d565b8273ffffffffffffffffffffffffffffffffffffffff16610e1182610600565b73ffffffffffffffffffffffffffffffffffffffff1614610e67576040517f08c379a0000000000000000000000000000000000000000000000000000000008152600401610e5e906124e6565b60405180910390fd5b6004600082815260200190815260200160002060006101000a81549073ffffffffffffffffffffffffffffffffffffffff02191690556001600360008573ffffffffffffffffffffffffffffffffffffffff1673ffffffffffffffffffffffffffffffffffffffff168152602001908152602001600020600082825403925050819055506001600360008473ffffffffffffffffffffffffffffffffffffffff1673ffffffffffffffffffffffffffffffffffffffff16815260200190815260200160002060008282540192505081905550816002600083815260200190815260200160002060006101000a81548173ffffffffffffffffffffffffffffffffffffffff021916908373ffffffffffffffffffffffffffffffffffffffff160217905550808273ffffffffffffffffffffffffffffffffffffffff168473ffffffffffffffffffffffffffffffffffffffff167fddf252ad1be2c89b69c2b068fc378daa952ba7f163c4a11628f55a4df523b3ef60405160405180910390a4610ff38383836001611413565b505050565b60006002600083815260200190815260200160002060009054906101000a900473ffffffffffffffffffffffffffffffffffffffff169050919050565b8173ffffffffffffffffffffffffffffffffffffffff168373ffffffffffffffffffffffffffffffffffffffff16036110a3576040517f08c379a000000000000000000000000000000000000000000000000000000000815260040161109a906125e4565b60405180910390fd5b80600560008573ffffffffffffffffffffffffffffffffffffffff1673ffffffffffffffffffffffffffffffffffffffff16815260200190815260200160002060008473ffffffffffffffffffffffffffffffffffffffff1673ffffffffffffffffffffffffffffffffffffffff16815260200190815260200160002060006101000a81548160ff0219169083151502179055508173ffffffffffffffffffffffffffffffffffffffff168373ffffffffffffffffffffffffffffffffffffffff167f17307eab39ab6107e8899845ad3d59bd9653f200f220920489ca2b5937696c31836040516111949190611b10565b60405180910390a3505050565b6111ac848484610cff565b6111b884848484611419565b6111f7576040517f08c379a00000000000000000000000000000000000000000000000000000000081526004016111ee90612676565b60405180910390fd5b50505050565b606060405180602001604052806000815250905090565b606061121f82610b5e565b60006112296111fd565b905060008151116112495760405180602001604052806000815250611274565b80611253846115a0565b604051602001611264929190612450565b6040516020818303038152906040525b915050919050565b6001816000016000828254019250508190555050565b600081600001549050919050565b6112ba82826040518060200160405280600081525061166e565b5050565b6112c7826113cc565b611306576040517f08c379a00000000000000000000000000000000000000000000000000000000081526004016112fd90612708565b60405180910390fd5b8060066000848152602001908152602001600020908161132691906128d4565b507ff8e1a15aba9398e019f0b49df1a4fde98ee17ae345cb5f6b5e2c27f5033e8ce7826040516113569190611d97565b60405180910390a15050565b60007f01ffc9a7000000000000000000000000000000000000000000000000000000007bffffffffffffffffffffffffffffffffffffffffffffffffffffffff1916827bffffffffffffffffffffffffffffffffffffffffffffffffffffffff1916149050919050565b60008073ffffffffffffffffffffffffffffffffffffffff166113ee83610ff8565b73ffffffffffffffffffffffffffffffffffffffff1614159050919050565b50505050565b50505050565b600061143a8473ffffffffffffffffffffffffffffffffffffffff166116c9565b15611593578373ffffffffffffffffffffffffffffffffffffffff1663150b7a02611463610ba9565b8786866040518563ffffffff1660e01b815260040161148594939291906129fb565b6020604051808303816000875af19250505080156114c157506040513d601f19601f820116820180604052508101906114be9190612a5c565b60015b611543573d80600081146114f1576040519150601f19603f3d011682016040523d82523d6000602084013e6114f6565b606091505b50600081510361153b576040517f08c379a000000000000000000000000000000000000000000000000000000000815260040161153290612676565b60405180910390fd5b805181602001fd5b63150b7a0260e01b7bffffffffffffffffffffffffffffffffffffffffffffffffffffffff1916817bffffffffffffffffffffffffffffffffffffffffffffffffffffffff191614915050611598565b600190505b949350505050565b6060600060016115af846116ec565b01905060008167ffffffffffffffff8111156115ce576115cd611e28565b5b6040519080825280601f01601f1916602001820160405280156116005781602001600182028036833780820191505090505b509050600082602001820190505b600115611663578080600190039150507f3031323334353637383961626364656600000000000000000000000000000000600a86061a8153600a858161165757611656612a89565b5b0494506000850361160e575b819350505050919050565b611678838361183f565b6116856000848484611419565b6116c4576040517f08c379a00000000000000000000000000000000000000000000000000000000081526004016116bb90612676565b60405180910390fd5b505050565b6000808273ffffffffffffffffffffffffffffffffffffffff163b119050919050565b600080600090507a184f03e93ff9f4daa797ed6e38ed64bf6a1f010000000000000000831061174a577a184f03e93ff9f4daa797ed6e38ed64bf6a1f01000000000000000083816117405761173f612a89565b5b0492506040810190505b6d04ee2d6d415b85acef81000000008310611787576d04ee2d6d415b85acef8100000000838161177d5761177c612a89565b5b0492506020810190505b662386f26fc1000083106117b657662386f26fc1000083816117ac576117ab612a89565b5b0492506010810190505b6305f5e10083106117df576305f5e10083816117d5576117d4612a89565b5b0492506008810190505b61271083106118045761271083816117fa576117f9612a89565b5b0492506004810190505b60648310611827576064838161181d5761181c612a89565b5b0492506002810190505b600a8310611836576001810190505b80915050919050565b600073ffffffffffffffffffffffffffffffffffffffff168273ffffffffffffffffffffffffffffffffffffffff16036118ae576040517f08c379a00000000000000000000000000000000000000000000000000000000081526004016118a590612b04565b60405180910390fd5b6118b7816113cc565b156118f7576040517f08c379a00000000000000000000000000000000000000000000000000000000081526004016118ee90612b70565b60405180910390fd5b61190560008383600161140d565b61190e816113cc565b1561194e576040517f08c379a000000000000000000000000000000000000000000000000000000000815260040161194590612b70565b60405180910390fd5b6001600360008473ffffffffffffffffffffffffffffffffffffffff1673ffffffffffffffffffffffffffffffffffffffff16815260200190815260200160002060008282540192505081905550816002600083815260200190815260200160002060006101000a81548173ffffffffffffffffffffffffffffffffffffffff021916908373ffffffffffffffffffffffffffffffffffffffff160217905550808273ffffffffffffffffffffffffffffffffffffffff16600073ffffffffffffffffffffffffffffffffffffffff167fddf252ad1be2c89b69c2b068fc378daa952ba7f163c4a11628f55a4df523b3ef60405160405180910390a4611a58600083836001611413565b5050565b6000604051905090565b600080fd5b600080fd5b60007fffffffff0000000000000000000000000000000000000000000000000000000082169050919050565b611aa581611a70565b8114611ab057600080fd5b50565b600081359050611ac281611a9c565b92915050565b600060208284031215611ade57611add611a66565b5b6000611aec84828501611ab3565b91505092915050565b60008115159050919050565b611b0a81611af5565b82525050565b6000602082019050611b256000830184611b01565b92915050565b600081519050919050565b600082825260208201905092915050565b60005b83811015611b65578082015181840152602081019050611b4a565b60008484015250505050565b6000601f19601f8301169050919050565b6000611b8d82611b2b565b611b978185611b36565b9350611ba7818560208601611b47565b611bb081611b71565b840191505092915050565b60006020820190508181036000830152611bd58184611b82565b905092915050565b6000819050919050565b611bf081611bdd565b8114611bfb57600080fd5b50565b600081359050611c0d81611be7565b92915050565b600060208284031215611c2957611c28611a66565b5b6000611c3784828501611bfe565b91505092915050565b600073ffffffffffffffffffffffffffffffffffffffff82169050919050565b6000611c6b82611c40565b9050919050565b611c7b81611c60565b82525050565b6000602082019050611c966000830184611c72565b92915050565b611ca581611c60565b8114611cb057600080fd5b50565b600081359050611cc281611c9c565b92915050565b60008060408385031215611cdf57611cde611a66565b5b6000611ced85828601611cb3565b9250506020611cfe85828601611bfe565b9150509250929050565b600080600060608486031215611d2157611d20611a66565b5b6000611d2f86828701611cb3565b9350506020611d4086828701611cb3565b9250506040611d5186828701611bfe565b9150509250925092565b600060208284031215611d7157611d70611a66565b5b6000611d7f84828501611cb3565b91505092915050565b611d9181611bdd565b82525050565b6000602082019050611dac6000830184611d88565b92915050565b611dbb81611af5565b8114611dc657600080fd5b50565b600081359050611dd881611db2565b92915050565b60008060408385031215611df557611df4611a66565b5b6000611e0385828601611cb3565b9250506020611e1485828601611dc9565b9150509250929050565b600080fd5b600080fd5b7f4e487b7100000000000000000000000000000000000000000000000000000000600052604160045260246000fd5b611e6082611b71565b810181811067ffffffffffffffff82111715611e7f57611e7e611e28565b5b80604052505050565b6000611e92611a5c565b9050611e9e8282611e57565b919050565b600067ffffffffffffffff821115611ebe57611ebd611e28565b5b611ec782611b71565b9050602081019050919050565b82818337600083830152505050565b6000611ef6611ef184611ea3565b611e88565b905082815260208101848484011115611f1257611f11611e23565b5b611f1d848285611ed4565b509392505050565b600082601f830112611f3a57611f39611e1e565b5b8135611f4a848260208601611ee3565b91505092915050565b60008060008060808587031215611f6d57611f6c611a66565b5b6000611f7b87828801611cb3565b9450506020611f8c87828801611cb3565b9350506040611f9d87828801611bfe565b925050606085013567ffffffffffffffff811115611fbe57611fbd611a6b565b5b611fca87828801611f25565b91505092959194509250565b600067ffffffffffffffff821115611ff157611ff0611e28565b5b611ffa82611b71565b9050602081019050919050565b600061201a61201584611fd6565b611e88565b90508281526020810184848401111561203657612035611e23565b5b612041848285611ed4565b509392505050565b600082601f83011261205e5761205d611e1e565b5b813561206e848260208601612007565b91505092915050565b60006020828403121561208d5761208c611a66565b5b600082013567ffffffffffffffff8111156120ab576120aa611a6b565b5b6120b784828501612049565b91505092915050565b600080604083850312156120d7576120d6611a66565b5b60006120e585828601611cb3565b92505060206120f685828601611cb3565b9150509250929050565b7f4e487b7100000000000000000000000000000000000000000000000000000000600052602260045260246000fd5b6000600282049050600182168061214757607f821691505b60208210810361215a57612159612100565b5b50919050565b7f4552433732313a20617070726f76616c20746f2063757272656e74206f776e6560008201527f7200000000000000000000000000000000000000000000000000000000000000602082015250565b60006121bc602183611b36565b91506121c782612160565b604082019050919050565b600060208201905081810360008301526121eb816121af565b9050919050565b7f4552433732313a20617070726f76652063616c6c6572206973206e6f7420746f60008201527f6b656e206f776e6572206f7220617070726f76656420666f7220616c6c000000602082015250565b600061224e603d83611b36565b9150612259826121f2565b604082019050919050565b6000602082019050818103600083015261227d81612241565b9050919050565b7f4552433732313a2063616c6c6572206973206e6f7420746f6b656e206f776e6560008201527f72206f7220617070726f76656400000000000000000000000000000000000000602082015250565b60006122e0602d83611b36565b91506122eb82612284565b604082019050919050565b6000602082019050818103600083015261230f816122d3565b9050919050565b7f4552433732313a20696e76616c696420746f6b656e2049440000000000000000600082015250565b600061234c601883611b36565b915061235782612316565b602082019050919050565b6000602082019050818103600083015261237b8161233f565b9050919050565b7f4552433732313a2061646472657373207a65726f206973206e6f74206120766160008201527f6c6964206f776e65720000000000000000000000000000000000000000000000602082015250565b60006123de602983611b36565b91506123e982612382565b604082019050919050565b6000602082019050818103600083015261240d816123d1565b9050919050565b600081905092915050565b600061242a82611b2b565b6124348185612414565b9350612444818560208601611b47565b80840191505092915050565b600061245c828561241f565b9150612468828461241f565b91508190509392505050565b7f4552433732313a207472616e736665722066726f6d20696e636f72726563742060008201527f6f776e6572000000000000000000000000000000000000000000000000000000602082015250565b60006124d0602583611b36565b91506124db82612474565b604082019050919050565b600060208201905081810360008301526124ff816124c3565b9050919050565b7f4552433732313a207472616e7366657220746f20746865207a65726f2061646460008201527f7265737300000000000000000000000000000000000000000000000000000000602082015250565b6000612562602483611b36565b915061256d82612506565b604082019050919050565b6000602082019050818103600083015261259181612555565b9050919050565b7f4552433732313a20617070726f766520746f2063616c6c657200000000000000600082015250565b60006125ce601983611b36565b91506125d982612598565b602082019050919050565b600060208201905081810360008301526125fd816125c1565b9050919050565b7f4552433732313a207472616e7366657220746f206e6f6e20455243373231526560008201527f63656976657220696d706c656d656e7465720000000000000000000000000000602082015250565b6000612660603283611b36565b915061266b82612604565b604082019050919050565b6000602082019050818103600083015261268f81612653565b9050919050565b7f45524337323155524953746f726167653a2055524920736574206f66206e6f6e60008201527f6578697374656e7420746f6b656e000000000000000000000000000000000000602082015250565b60006126f2602e83611b36565b91506126fd82612696565b604082019050919050565b60006020820190508181036000830152612721816126e5565b9050919050565b60008190508160005260206000209050919050565b60006020601f8301049050919050565b600082821b905092915050565b60006008830261278a7fffffffffffffffffffffffffffffffffffffffffffffffffffffffffffffffff8261274d565b612794868361274d565b95508019841693508086168417925050509392505050565b6000819050919050565b60006127d16127cc6127c784611bdd565b6127ac565b611bdd565b9050919050565b6000819050919050565b6127eb836127b6565b6127ff6127f7826127d8565b84845461275a565b825550505050565b600090565b612814612807565b61281f8184846127e2565b505050565b5b818110156128435761283860008261280c565b600181019050612825565b5050565b601f8211156128885761285981612728565b6128628461273d565b81016020851015612871578190505b61288561287d8561273d565b830182612824565b50505b505050565b600082821c905092915050565b60006128ab6000198460080261288d565b1980831691505092915050565b60006128c4838361289a565b9150826002028217905092915050565b6128dd82611b2b565b67ffffffffffffffff8111156128f6576128f5611e28565b5b612900825461212f565b61290b828285612847565b600060209050601f83116001811461293e576000841561292c578287015190505b61293685826128b8565b86555061299e565b601f19841661294c86612728565b60005b828110156129745784890151825560018201915060208501945060208101905061294f565b86831015612991578489015161298d601f89168261289a565b8355505b6001600288020188555050505b505050505050565b600081519050919050565b600082825260208201905092915050565b60006129cd826129a6565b6129d781856129b1565b93506129e7818560208601611b47565b6129f081611b71565b840191505092915050565b6000608082019050612a106000830187611c72565b612a1d6020830186611c72565b612a2a6040830185611d88565b8181036060830152612a3c81846129c2565b905095945050505050565b600081519050612a5681611a9c565b92915050565b600060208284031215612a7257612a71611a66565b5b6000612a8084828501612a47565b91505092915050565b7f4e487b7100000000000000000000000000000000000000000000000000000000600052601260045260246000fd5b7f4552433732313a206d696e7420746f20746865207a65726f2061646472657373600082015250565b6000612aee602083611b36565b9150612af982612ab8565b602082019050919050565b60006020820190508181036000830152612b1d81612ae1565b9050919050565b7f4552433732313a20746f6b656e20616c7265616479206d696e74656400000000600082015250565b6000612b5a601c83611b36565b9150612b6582612b24565b602082019050919050565b60006020820190508181036000830152612b8981612b4d565b905091905056fea264697066735822122079921362944a1aebd379a80e6dc4f02972e526e8a1a1972f7611742db37a29e564736f6c63430008120033",
  "linkReferences": {},
  "deployedLinkReferences": {}
}